:020000040800F2
:10000000A82800209D010008E726000827250008F1
:10001000E5260008D1090008DD2E000800000000D8
:1000200000000000000000000000000005010008C2
:10003000F90A00080000000049010008452B0008EB
:10004000B7010008B7010008B7010008B7010008B0
:10005000B7010008B7010008B7010008B7010008A0
:10006000B7010008B7010008B7010008B701000890
:10007000B7010008B7010008B7010008B701000880
:10008000B7010008B7010008B7010008B701000870
:10009000D12E0008B7010008B7010008B701000819
:1000A000B7010008B7010008B7010008B701000850
:1000B000B7010008B7010008C12B0008B70100080C
:1000C000B7010008B7010008B7010008B701000830
:1000D000B7010008B7010008C52E0008B7010008E5
:1000E000B7010008B7010008B7010008DFF810D019
:1000F00000F0DEFB00480047F9380008AFF300804D
:10010000A8280020224B19680868B0E8F00F80F397
:100110000988BFF36F8F4FF0000080F311884EF015
:100120000D0E70470000000006480068006880F36C
:10013000088862B661B6BFF34F8FBFF36F8F00DFE1
:1001400000BF00BF08ED00E0EFF30980BFF36F8F41
:100150000F4B1A6820E9F00F106008B54FF05000FF
:1001600080F31188BFF34F8FBFF36F8F04F026FB2E
:100170004FF0000080F31188BDE808401968086856
:10018000B0E8F00F80F30988BFF36F8F704700BFAE
:100190004C000020EFF305807047000006488047C0
:1001A00006480047FEE7FEE7FEE7FEE7FEE7FEE75C
:1001B000FEE7FEE7FEE7FEE7BD2B0008ED000008C6
:1001C000202A04DB203A21FA02F00021704721FAAC
:1001D00002F3D040C2F12002914008431946704713
:1001E00040EA01039B0703D009E008C9121F08C0B9
:1001F000042AFAD203E011F8013B00F8013B521E39
:10020000F9D27047D2B201E000F8012B491EFBD2AF
:1002100070470022F6E710B513460A460446194611
:10022000FFF7F0FF204610BD30B505462A460B46C5
:1002300012F8010B13F8014B08B1A042F8D01CB121
:10024000002802D06D1CF1E7284630BD421C10F892
:10025000011B0029FBD1801A7047F0B480EA01022B
:10026000D40F4200B2EB410F02D2024608461146BB
:100270004A0042D0C30DDDB2C1F3C752AD1A202DE2
:1002800035DAC1F3160141F4000204B15242C5F15E
:10029000200602FA06F12A411044B3EBD05F23D0C6
:1002A000C4B1012DA0EBC35009DCF0BC4FF00042FB
:1002B00002EAC352DBB200F5000000F012B94000C0
:1002C00000F1807000EBC350A0F1807040EAD17063
:1002D000490009E0490841EAC071A0EBC35000F5AC
:1002E0000000400800EBC350F0BC00F0F1B86142E0
:1002F000012202EB4101001BF6E7F0BC704781F0E0
:100300000041AAE780F00040A7E780EA010210B5AB
:1003100002F00043400022D04A001FD0010E01EB42
:100320001261C0F35600C2F3560240F4000042F4DA
:100330000002A0FB022000047F39140400D0401CFE
:1003400050EA124001D44000491EC2B20C0604EB30
:10035000D010401C4008802A02D003E0002010BDCD
:1003600020F00100002900DA0020184310BD30B44D
:1003700080EA010202F0004530F0004221F0004026
:1003800013D090B1C30DD40DC2F31601C0F3160003
:10039000E41A41F4000140F400027D34914201D39B
:1003A000641C00E04900002C02DA30BC00207047D9
:1003B0004FF400000023914201D3891A03434008FF
:1003C0004FEA4101F7D151B1914202D14FF00041C2
:1003D00005E002D24FF0010101E06FF0010103EBF3
:1003E000C450284430BC00F073B896230022114654
:1003F00000F077B820F00040C10DC0F3160040F4C3
:1004000000007F2901DA00207047962903DCC1F142
:100410009601C840704796398840704700F0004206
:1004200030F000400AD0C10D01F56071C0F3160034
:1004300042EA0151C20840071143704700200146BB
:10044000704730B50B46014600202022012409E008
:1004500021FA02F59D4205D303FA02F5491B04FA7D
:1004600002F52844151EA2F10102F1DC30BD2DE990
:10047000F05F0546002092469B4688460646814628
:1004800040241BE02846414647462246FFF798FE97
:1004900053465A46C01A914110D311461846224677
:1004A00000F018FA2D1A67EB01084F46224601208A
:1004B000002100F00FFA17EB00094E41201EA4F1B5
:1004C0000104DFDC484631462A464346BDE8F09F3A
:1004D0000029A8BF7047401C490008BF20F0010058
:1004E000704710B4B0FA80FC00FA0CF050EA010436
:1004F00004BF10BC704749B1CCF1200421FA04F4C8
:1005000011FA0CF118BF012121430843A3EB0C01A0
:10051000CB1D4FEA00614FEA102042BF002010BC03
:10052000704700EBC35010440029A4BF10BC7047B3
:10053000401C490008BF20F0010010BC70472DE9A5
:10054000FE4F804681EA0300C00F0C46009021F068
:10055000004123F00045B8EB0200A94105D2404616
:10056000214690461C460B46024623F000401043AD
:1005700047D0270DC7F30A00C3F30A510290401A6F
:10058000019040286BDAC3F3130040F4801B0098FD
:10059000924620B10023D2EB030A63EB0B0B0198C8
:1005A0005946C0F14002504600F094F906460D4607
:1005B00050465946019A00F09CF910EB0800614141
:1005C000002487EA115284EAE7731A4340D0009A64
:1005D00062B3019A012A4FEA075215DC001B61EB56
:1005E00002014FF0004202EA0752CDE90042001C2E
:1005F00041F5801132462B4600F09CF903B0BDE86E
:10060000F08F40462146F9E7001B61EB0201001C18
:1006100041F5801300185B412018A2F5001747EB45
:10062000030140EAD570B6196D4111E06D084FEA3B
:10063000360645EAC0754FEA0752001B61EB02011E
:10064000001C41F5801149084FEA30000019514162
:1006500032462B4603B0BDE8F04F00F05CB900987D
:10066000012240000023D0EB020263EBE07300980C
:1006700021464FEAE074B8EB000061EB0401E9E7C2
:1006800083F000435BE781F0004158E72DE9FE4F1E
:1006900081EA030404F0004421F0004100944FF08B
:1006A000000B23F0004350EA01045ED052EA030439
:1006B0005BD0C3F30A54C1F30A552C44A4F2F334BB
:1006C0000194A0FB0254C1F3130141F48011C3F360
:1006D000130343F4801301FB024400FB034E840A1E
:1006E000970A44EA815447EA8357A4FB07680295B6
:1006F0008D0A05FB07854FEA932C04FB0C54270554
:10070000029D4FEA065847EA1637B5EB08056EEB2F
:10071000070C870E920E47EA811742EA8312A7FB65
:100720000201B6EB0B0164EB00042B0D43EA0C3322
:100730005E1844EB1C50DA465146E7FB0201C5F354
:1007400013044FEA0B3343EA14534FEA0432019C7B
:1007500043EA0603A4F10C040294009CCDE900B422
:1007600000F0E8F803B0BDE8F08F00200146F9E79B
:100770002DE9F04D81EA030404F0004B21F000451F
:1007800014464FF0000A23F0004150EA050220D041
:1007900054EA01021DD0C5F30A570246C5F31303FC
:1007A000C1F31300C1F30A5640F4801543F48013DB
:1007B000A7EB0608101BD64608F2FD3873EB0500C0
:1007C00002D308F1010801E092185B41B8F1000F73
:1007D00003DA00200146BDE8F08D00204FF48011BF
:1007E000064684460EE0171B73EB050705D3121B64
:1007F00063EB050306434CEA010C49084FEA30005D
:1008000092185B4150EA0107EDD152EA030012D081
:1008100082EA040083EA0501084305D0101BAB41BE
:1008200006D20122002306E000224FF0004302E03E
:100830006FF0010253101AEB06004CEB085110EB5D
:100840000A0041EB0B01BDE8F04D00F064B8C1F3C4
:100850000A52C1F3130140F2FF3341F480119A426E
:1008600002DA00200146704740F233439A42A2F276
:10087000334202DC5242FFF7A3BC00F02BB8000069
:1008800030B5041E71F1000404DB4FF00044404217
:1008900064EB0101141E73F1000405DB1C464FF0EC
:1008A0000043524263EB0403994208BF904230BDBB
:1008B000064C074D06E0E06840F0010394E80700AD
:1008C00098471034AC42F6D3FFF714FC9C5F000845
:1008D000BC5F0008202A04DB203A00FA02F1002065
:1008E00070479140C2F1200320FA03F3194390406E
:1008F0007047202A06DBCB17203A41FA02F043EA80
:10090000E07306E041FA02F3D040C2F120029140C8
:1009100008431946704710B5141E73F1000408DA35
:10092000401C41F1000192185B411A4301D120F0B3
:10093000010010BD2DE9F04D92469B4611B1B1FA70
:1009400081F202E0B0FA80F220329046FFF7C2FF57
:1009500004460F4640EA0A0041EA0B0153465A4654
:10096000084313D0114653EA010019D0C8F14002E0
:100970005046FFF725FC05460E465046594642466E
:10098000FFF7A8FF084305D0012004E020463946C0
:10099000BDE8F08D0020054346EAE0762C4337435E
:1009A0000A986305E40AA0EB08000022FD0A44EA65
:1009B00047540A3002D500200146E9E70105101925
:1009C0006941DDE9084500196941BDE8F04DA2E73C
:1009D000FEE700F007F84FF47A74204602F0A8FF13
:1009E000FBE7000000B58BB00020012142F260421D
:1009F0000590CDE90601CDE900204FF6E072CDE982
:100A0000022004900E20CDE908106946094800F044
:100A100067FA08B100F02AFA064800F023FD08B191
:100A200000F024FA48F20201024800F047FA0BB045
:100A300000BD0000D000002030B58FB005AB07AA84
:100A4000002100F0C5FA00283BD10798A0F580717D
:100A5000233936D10B98042833D1BDF81400BDF8E2
:100A6000161040BA4CBAFFF7C0FC174D2946FFF7E5
:100A70007EFC02902046FFF7B8FC2946FFF777FC82
:100A8000039001208DF810000398FFF7C7FC04467F
:100A90000D460298FFF7C2FC02460B460BA0CDE9BB
:100AA000004502F08FFA124800231A4602A9006896
:100AB00002F0D8FF0F4800231A4602A9006802F08E
:100AC000D1FF0FB030BD00000000204152656365CA
:100AD000697665643A2054656D703D252E31664314
:100AE0002C2048756D693D252E316625250D0A009F
:100AF00010000020140000207047000010B54FF4D3
:100B000000710348FFF785FB02490020488010BDB3
:100B1000D00100201800002070B5ADF5027DFFF770
:100B2000EDFF50A002F04EFA4FF4FA7502E02846AD
:100B300000F03AFD4DA14EA000F032F90028F6D1A8
:100B40004DA002F03FFA4BA14EA000F029F9284633
:100B500000F02AFD4EA002F035FA02E0284600F02F
:100B600023FD42A14DA000F01BF90028F6D14FA0B3
:100B700002F028FA02E0284600F016FD3BA14FA043
:100B800000F00EF90028F6D150A002F01BFA02E0A6
:100B9000284600F009FD35A14FA000F001F900281A
:100BA000F6D154A002F00EFA564C57A120690090DD
:100BB000D4E9022301A802F015FA02E0284600F069
:100BC000F3FC2AA101A800F0EBF80028F6D14FF4BD
:100BD0000076314601A8FFF71CFB56A002F0F2F99F
:100BE00058A101A8626902F0FDF902E0284600F070
:100BF000DBFC1EA101A800F0D3F80028F6D1314695
:100C000001A8FFF706FB56A002F0DCF957A101A8E6
:100C1000E26902F0E7F902E0284600F0C5FC13A102
:100C200001A800F0BDF80028F6D1314601A8FFF771
:100C3000F0FA54A002F0C6F94CA101A8226A02F011
:100C4000D1F902E0284600F0AFFC08A101A800F0AD
:100C5000A7F80028F6D1314601A8FFF7DAFA0DF51A
:100C6000027D70BD302E2041540D0A004F4B000014
:100C700041540D0A00000000312E205253540D0A39
:100C80000000000041542B5253540D0A0000000094
:100C9000322E2043574D4F44450D0A0041542B43FB
:100CA000574D4F44453D310D0A000000332E204181
:100CB000542B4357444843500D0A000041542B43E2
:100CC00057444843503D312C310D0A00342E204307
:100CD000574A41500D0A000041542B43574A415096
:100CE0003D227A6865222C2238383838383838382E
:100CF000220D0A00352E4D5154545553455243464A
:100D0000470D0A001800002041542B4D51545455F2
:100D10005345524346473D302C312C222573222C1B
:100D2000222573222C222573222C302C302C2222B7
:100D30000D0A0000362E4D515454434F4E4E0D0AAD
:100D40000000000041542B4D515454434F4E4E3D32
:100D5000302C222573222C313838332C310D0A00E7
:100D6000372E4D5154545355420D0A0041542B4DCA
:100D70005154545355423D302C222573222C310DB1
:100D80000A000000382E2053756273637269626531
:100D900020746F2053455420746F7069630D0A00EE
:100DA0002DE9F041A2B088460646C825FFF74EFA65
:100DB00087B22622234910A8FFF712FA214CE08CB3
:100DC000ADF86600A06A1A90A08DADF86C00E08DB9
:100DD000ADF86E00206B1C90606B1D90092204F131
:100DE00038011EA8FFF7FCF994F841008DF8810046
:100DF00094F842008DF88200606C2190382214A98A
:100E00006846CDE90E67FFF7EBF910AC94E80F00E8
:100E100002F065F811E000BF00F018F850B9414643
:100E20000948FFF701FA28B1FFF768FE002022B059
:100E3000BDE8F0810A2000F0B7FB6D1EEDB2EBD2E9
:100E40000120F4E740010020D0010020064841883D
:100E500031B18288914205D1002141800846704716
:100E6000012070478180FBE71800002072B6FEE782
:100E700010B5C2B003460E4800910E49826901A820
:100E800002F0B0F84FF4FA7402E0204600F08CFB58
:100E900009A101A8FFF784FF0028F6D14FF4807163
:100EA00001A8FFF7B6F9642000F07EFB42B010BD48
:100EB00018000020085E00084F4B000090F820202A
:100EC000012A07D0022A05D0416A41F480214162FB
:100ED00001207047006842690A4342610020704760
:100EE00010B590F820300268012B07D0022B05D0F6
:100EF000416A41F480214162012010BDD2F8000214
:100F000040F00100C2F80002087D00F01F0301203C
:100F10009840D2F81C328343C2F81C32CB69B3B973
:100F2000D2F80C328343C2F80C328C894B6864F3DC
:100F30001F434C6902EBC404C4F840320C890B68AF
:100F400064F31F434C6902EBC404C4F84432CB6918
:100F5000012B16D1D2F80C320343C2F80C320C88A4
:100F60004B6864F31F434C6902EBC404C4F840327D
:100F70000C89CB6864F31F434C6902EBC404C4F8CA
:100F800044328B69002BD2F804320FD053EA0003AD
:100F9000C2F804320B69002BD2F8143208D0034394
:100FA000C2F81432096A012904D008E08343EFE74C
:100FB0008343F5E7D2F81C120143C2F81C12D2F8A1
:100FC000000220F00100C2F80002002010BD7047AE
:100FD00070B590F82040012C05D0022C03D0416A56
:100FE00041F4802128E0046809B32469A40720D0D3
:100FF0004FF4D874056804EB01142D5915F004055D
:10100000956005682D591AD0ED08556005682C5972
:1010100004F00204D4604FF4DA74056804EB0114A0
:101020002E5906F00F06082E0CD308250DE0E468B3
:10103000DCE7416A41F400114162012070BD6D0D91
:101040001560E3E72D5905F00F05156105682D5969
:10105000C5F30725956105682C59240C54614FF49C
:10106000DC72046802EB0112A4581C700468A458D6
:10107000240A5C700468A458240C9C700468A2586C
:10108000120EDA704FF4DE72046802EB0112A458FB
:101090001C710468A458240A5C710468A458240CC8
:1010A0009C710468A258120EDA71006829B10169B6
:1010B00041F020010161002070BDC16841F02001B4
:1010C000C160F8E72DE9F05F054600680024466935
:1010D000D0F804908768D0F80CB0D0F810A0D0F801
:1010E0001880F10748D0F90714D001218160B807B2
:1010F00003D5284600F0E3F90CE0780702D54FF459
:10110000006407E0380702D54FF4805402E0284617
:1011100000F0D4F9F80516D529684FF4807088607E
:10112000B80503D5284600F0CCF90CE0780502D5C7
:1011300044F4005407E0380502D544F4804402E04A
:10114000284600F0BDF9F80316D529684FF4803021
:101150008860B80303D5284600F0B5F90CE07803A1
:1011600002D544F4004407E0380302D544F4803447
:1011700002E0284600F0A6F9300707D55FEACB6009
:1011800004D52968102044F40074C86070074FF03B
:10119000080707D55FEA0B7004D52868C7602846A2
:1011A00000F05AF9B00706D52868C068800702D059
:1011B000284600F052F9700607D55FEACA6004D5E8
:1011C0002968102044F480640861B00607D55FEAFE
:1011D0000A7004D528680761284600F040F9F00637
:1011E00006D528680069800702D0284600F038F943
:1011F000B00308D55FEAC96005D5296810204860AA
:10120000284600F02EF9F00307D55FEA097004D5EF
:1012100028684760284600F057F9300446D55FEA51
:10122000497040D5F00504D55FEAC87001D044F09C
:101230000104B00504D55FEA887001D544F00204CA
:10124000700504D55FEA487001D544F00404300508
:1012500029D518F0700F26D008F07000402815D05E
:1012600006DC102809D020280AD0302816D10AE040
:1012700050280ED0602811D10EE044F008040DE093
:1012800044F010040AE044F0200407E044F0400475
:1012900004E044F0800401E044F48074286881692B
:1012A00021F070018161296804204860002C05D07C
:1012B000686A204368622846FFF789FEBDE8F09F10
:1012C00070B5040003D094F8200010B104E00120B0
:1012D00070BD204600F082F82068016841F00101ED
:1012E000016000F069FA0546052604E000F064FAA2
:1012F000401B0A2811D820684068C007F6D0206833
:10130000016821F00201016000F056FA05460BE089
:1013100000F052FA401B0A2806D9606A40F40030F7
:10132000606284F82060D2E7206840688007EFD4CC
:10133000207E0128206801683DD021F080010160F5
:10134000607E01282068016838D021F040010160EA
:10135000A07E01282068016833D021F020010160BF
:10136000E07E0128206801682ED041F01001016064
:10137000207F01282068016829D021F00801016040
:10138000607F01282068016824D021F004010160F9
:10139000D4E902010843D4E9041211430843616807
:1013A000491E08432168C86100206062012084F85A
:1013B0002000002070BD41F08001C0E741F04001F5
:1013C000C5E741F02001CAE721F01001CFE741F065
:1013D0000801D4E741F00401D9E7000010B586B058
:1013E0000021009101910291039100681749884200
:1013F0002AD11748C16941F00071C161C16901F08A
:1014000000710491816941F0040181618069114C8E
:1014100000F0040004904FF40060009069462046FC
:1014200000F0D4F8A0140090022001900320039053
:101430006946204600F0CAF800220521142000F079
:1014400059FA142000F048FA06B010BD00640040BC
:1014500000100240000801407047FFF7EDBA7047E6
:101460007047704770B5044690F82000012804D0FA
:10147000606A40F40020606218E0022084F82000D6
:101480002068016821F00101016000F095F905462E
:101490000EE000BF00F090F9401B0A2808D9606AEE
:1014A00040F400306062052084F82000012070BD07
:1014B00020684068C007EDD1606270BD704770471A
:1014C0007047704770477047704710B590F821100B
:1014D0000022022905D00421816380F82020012008
:1014E00010BD01680B6823F00E030B6001680B68E8
:1014F00023F001030B6090F84030C46B012101FA26
:1015000003F3636080F8211080F82020104610BD9E
:1015100010B590F821100024022903D00421816322
:1015200001243DE001680A6822F00E020A600168A9
:101530000A6822F001020A601A4A0168914201D148
:10154000012121E0174A1432914201D110211BE000
:10155000144A2832914201D1891515E0114A3C32D2
:10156000914201D189140FE00E4A5032914202D1CA
:101570004FF4803108E00B4A6432914202D14FF4BB
:10158000801101E04FF08071064A083A5160012154
:1015900080F82110002180F82010416B01B18847AC
:1015A000204610BD0800024070B5044600F004F962
:1015B0000546601C02D004480078044400F0FCF8A2
:1015C000401BA042FAD370BD3C0000202DE9F84F2B
:1015D000DFF8B8910024A9F1040B23460F2709F185
:1015E000040AABF1040EC9E00125A5402A40AA4235
:1015F0007DD1674ED1F804C0ACEB0608B44532D0BB
:1016000014DCBCF1030F3AD009DCBCF1000F2AD086
:10161000BCF1010F1CD0BCF1020F31D11DE0BCF1B7
:10162000110F17D0BCF1120F2AD119E0B8F5881F9D
:1016300019D006DCB8F5803F15D0B8F5801F1FD152
:1016400011E0B8F5001F0ED0B8F5041F18D10AE05C
:10165000CB6815E0CB681B1D12E0CB6808330FE0A8
:10166000CB680C330CE08B682BB1012B4FF00803D7
:1016700003D0456104E0042302E0056100E000239B
:10168000FF2A01D8064601E000F104064FEA84056E
:1016900001D9A5F12005D6F8008007FA05FC28EA53
:1016A0000C0803FA05F548EA0508C6F800804D68FD
:1016B000ED0062D5374DAE6946F00106AE61AD6909
:1016C00024F0030605F001050095334D06EB050CEB
:1016D000DCF80850A607360F07FA06F825EA0805D1
:1016E000DFF8B880404503D14FF0000817E044E030
:1016F000DFF8AC80404502D14FF001080FE0DFF881
:10170000A480404502D14FF0020808E0DFF898803D
:10171000404502D14FF0030801E04FF0040808FAF9
:1017200006F848EA0508CCF808804D68D9F800604A
:10173000ED024D4601D5164300E096432E604D68FC
:10174000DAF80060AD02554601D5164300E0964335
:101750002E604D68DBF80060AD035D4601D5164391
:1017600000E096432E604D68DEF80060ED0375469C
:1017700001D5164300E096432E60641C0D682A468E
:10178000E5407FF431AFBDE8F88F00000804014068
:10179000000011100010024000000140000801404C
:1017A000000C014000100140001401400AB1016129
:1017B00070470904FBE7000001488068704700009B
:1017C0003C00002002488168027811448160704723
:1017D0003C000020074810B5016841F0100101608D
:1017E000032000F0A7F80F2000F006F800F050F8F2
:1017F000002010BD0020024030B505461F4887B0CC
:10180000C16941F00401C161C06906A900F004008A
:10181000009001A800F036F90498B0B100F052F938
:1018200040001749174AB0FBF1F11748491E026002
:10183000416040F2E7320021C0E90321816081610B
:1018400000F018FB040003D015E000F03BF9E8E7D6
:101850000D4800F03DFB04000DD11E2000F03CF8C7
:10186000102D07D2002229461E2000F043F8074819
:10187000056000E0012407B0204630BD00100240A2
:1018800040420F0000080040880100204000002076
:101890000F4808B5816941F001018161816901F05A
:1018A00001010091C16941F08051C161C06900220C
:1018B00000F0805000900F21901E00F01BF80548AA
:1018C000416821F0E06141F00071416008BD000015
:1018D0000010024000000140002809DB00F01F0258
:1018E000012191404009800000F1E020C0F8001182
:1018F00070470000F0B40E4B1B680C46C3F3022384
:10190000C3F10705042D00D90425191D072901D2AB
:10191000002300E0DB1E012606FA05F1491E2140E6
:1019200099409E40761E16403143F0BC01F06EBBDC
:101930000CED00E0064900F0070208684FF6FF03CF
:10194000184040EA0220034A104308607047000034
:101950000CED00E00000FA052DE9F0470F46050008
:1019600061D0434E306800F00700B84209D23068B9
:1019700020F0070038433060306800F00700B842BC
:1019800051D128683B4C810712D5400703D56068C8
:1019900040F4E06060602878000703D5606840F498
:1019A000605060606068A96820F0F00008436060E3
:1019B0002878C00728D06868012810D0216802283C
:1019C00010D0890700292EDA616821F00301014354
:1019D0006160FFF7F1FE804641F288390DE0216831
:1019E0008903EFE78901EDE7FFF7E6FEA0EB0801C9
:1019F000494502D90320BDE8F0876068696800F0B6
:101A00000C00B0EB810FEFD1306800F00700B84256
:101A10000BD9306820F0070038433060306800F0A0
:101A20000700B84201D00120E5E72878400705D536
:101A30006068E96820F4E060084360602878000787
:101A400006D56068296920F4605040EAC1006060F2
:101A500000F058F86168084AC1F30311515CC840AE
:101A60000649086006480068FFF7C6FE0020C2E786
:101A70000020024000100240AA5D0008480000203B
:101A8000400000200F2202600C4A536803F0030359
:101A90004360536803F0F0038360536803F4E0632A
:101AA000C36052684FF4E06303EAD2020261044863
:101AB000006800F007000860704700000010024056
:101AC000002002400448054900684968044AC1F3FF
:101AD0000221515CC84070474800002000100240BD
:101AE000BA5D00080448054900684968044AC1F322
:101AF000C221515CC84070474800002000100240DD
:101B0000BA5D00080E4A51680E4801F00C03042B20
:101B100011D0082B0FD10C48C1F38343C903C05C1B
:101B20000AD55168084AC1F34041921E515C054AEA
:101B30005043B0FBF1F07047044948437047000040
:101B40000010024000127A009A5D000800093D0072
:101B50002DE9F84F040070D02078C04DC00749D05F
:101B60006868C0F38100012807D06868C0F381006D
:101B7000022809D16868C00306D52868800339D5D2
:101B800060680028E7D035E06068B0F5803F0BD092
:101B900010B1B0F5A02F11D0286820F48030286053
:101BA000286820F4802002E0286840F48030286013
:101BB000606890B1FFF700FE06460AE0286840F42E
:101BC00080202860F0E700BFFFF7F6FD801B642847
:101BD00073D828688003F7D50CE0FFF7EDFD0646C3
:101BE00005E000BFFFF7E8FD801B6428F0D82868F7
:101BF0008003F7D420789A4E80074FF001094FF008
:101C0000000839D5686810F00C0F07D06868C0F379
:101C10008100022809D16868C00306D428688007BB
:101C200014D52069012808D110E02069B0B1C6F8A8
:101C30000090FFF7C1FD074605E00AE1FFF7BCFD94
:101C4000C01B0228C4D828688007F7D528686169B6
:101C500020F0F80040EAC10028600DE0C6F80080DE
:101C6000FFF7AAFD074604E0FFF7A6FDC01B022808
:101C700023D828688007F7D4207800072CD5794826
:101C8000A169D9B1C0F80090FFF796FD074604E0BE
:101C9000FFF792FDC01B02280FD8686A8007F7D5AE
:101CA00071484FF4FA510068B0FBF1F0009000BFAA
:101CB0000098411E0091FAD20EE080E0C0F800804A
:101CC000FFF77AFD074604E0FFF776FDC01B022808
:101CD00075D8686A8007F7D42078400760D5E8692E
:101CE0000027C00008D4E86940F08050E861E86946
:101CF000012700F0805000905C480168C90513D4AA
:101D00000168834641F480710160FFF755FD82460A
:101D100006E000BFFFF750FDA0EB0A0064284ED894
:101D2000DBF80000C005F5D5E06801280AD008B14D
:101D3000052813D0286A20F001002862286A20F0C4
:101D4000040002E0286A40F001002862E06841F2E5
:101D5000883B98B1FFF730FD82460BE0286A40F0DF
:101D600004002862EEE700BFFFF726FDA0EB0A01A2
:101D700059455AD8286A8007F6D50CE0FFF71CFDB4
:101D8000824605E0FFF718FDA0EB0A0159454CD843
:101D9000286A8007F6D41FB1E86920F08050E86116
:101DA000E06988B36968C1F38101022944D002283F
:101DB000C6F8608004D0FFF7FFFC044638E034E04A
:101DC000FFF7FAFC074604E0FFF7F6FCC01B022809
:101DD0002BD828688001F7D4206AB0F5803F05D160
:101DE0006868A16820F4003008436860D4E90801FD
:101DF0000843696821F4741108436860C6F860906C
:101E0000FFF7DAFC044606E025E000BFFFF7D4FC4C
:101E1000001B022809D828688001F7D51BE000BF05
:101E2000FFF7CAFC001B022802D90320BDE8F88F87
:101E300028688001F4D40EE00128F7D06868226A8F
:101E400000F48031914204D1616A00F4701088423C
:101E500001D00120EAE70020E8E70000001002407E
:101E600000004242800442424800002000700040CE
:101E70007047704710B5040003D094F83D0010B1CE
:101E800007E0012010BD002084F83C00204600F04F
:101E90001EF8022084F83D00211D206800F096FE07
:101EA000012084F8460084F83E0084F83F0084F85E
:101EB000400084F8410084F8420084F8430084F82C
:101EC000440084F8450084F83D00002010BD7047B0
:101ED00090F83D10012901D001207047022180F8BF
:101EE0003D100168CA6842F00102CA6000680B49EF
:101EF000884208D0B0F1804F05D00949884202D00D
:101F00000849884204D1816801F00701062903D0FD
:101F1000016841F00101016000207047002C014080
:101F2000000400400008004070472DE9F0410446DD
:101F30000068C66805694FF00007A90713D5B10707
:101F400011D5F91E01610120207720688069800782
:101F5000204602D0FFF7E8FF04E000F07EF82046BC
:101F600000F07CF82777680716D5700714D521682C
:101F70006FF004000861022020772068806910F467
:101F8000407F204602D0FFF7CFFF04E000F065F865
:101F9000204600F063F82777280715D5300713D5BA
:101FA00021686FF008000861042020772068C0696C
:101FB0008007204602D0FFF7B7FF04E000F04DF89D
:101FC000204600F04BF82777E80616D5F00614D522
:101FD00021686FF010000861082020772068C06930
:101FE00010F4407F204602D0FFF79EFF04E000F08F
:101FF00034F8204600F032F82777E80708D0F007D9
:1020000006D021686FF001000861204600F028F832
:10201000280608D5300606D521686FF080000861D3
:102020002046FFF725FF680608D5700606D521680B
:102030006FF040000861204600F01CF8A8060AD5A1
:10204000B00608D521686FF0200008612046BDE881
:10205000F041FFF70EBFBDE8F08170477047000008
:1020600000680349884201D1FFF7ACBB704700000C
:10207000000800407047704770470000F8B50168DD
:1020800004460868CA684B6910F00F0F4FF000054E
:1020900059D003F0010602F49077374365D0C107A9
:1020A00005D0D10503D5616C41F0010161644107A0
:1020B00005D5D90703D0616C41F002016164810745
:1020C00005D5D90703D0616C41F0040161640107B3
:1020D00007D502F02001314303D0616C41F00801C3
:1020E0006164616C00293AD0800604D5900602D55F
:1020F000204600F0D6FD20684069616CC0F3801076
:10210000090700D460B3204600F0A4FD20684069B0
:10211000400621D52068143050E8001F21F040010E
:1021200040E80012002AF5D1E06BA8B16D49416387
:10213000E06BFFF7EDF9002811D0E06B416B01B0C7
:10214000BDE8F040084783060FD593060DD520461D
:10215000BDE8F84000F0A5BD2046FFF78DFFF8BDB3
:102160002046FFF789FF6564F8BD266B2023012E0A
:102170007CD1C6067AD5D60678D50868486800901E
:1021800048694FF00206400640D5E16B0868406898
:102190000004000CE8D0A28D8242E5D9E085886970
:1021A00020282DD020680C3050E8001F21F48071C9
:1021B00040E80012002AF5D12068143050E8001FD2
:1021C00021F0010140E80012002AF5D12068143006
:1021D00050E8001F21F0400140E80012002AF5D12C
:1021E00084F84230256320680C3050E8001F21F04D
:1021F000100140E80012002AF5D1E06BFFF765F905
:102200006663A08DE18D401A81B22AE0A08DE18D38
:10221000401A81B2E08D0028A6D00029A4D02268FF
:102220000C3252E8000F20F4907042E80007002FB3
:10223000F5D12068143050E8002F22F0010240E868
:102240000027002FF5D184F84230256320680C3038
:1022500050E8002F22F0100240E80023002BF5D1B7
:1022600066632046FFF707FFF8BDFFE705062BD59D
:10227000150629D594F841002128F5D1A068B0F5BC
:10228000805F01D12069B0B1206A411C21622168C0
:1022900000784860E08C401E0004000CE084E3D12C
:1022A0002068C16821F08001C1602068C16841F0E8
:1022B0004001C160D8E7206A0088C0F30800486088
:1022C000206A801C2062E5E74006CDD55006CBD5BC
:1022D000CA68204622F04002CA6084F8413000F00B
:1022E00021F9C1E7452C000870B5040004D094F82A
:1022F0004100002510B106E0012070BD84F8405077
:10230000204600F023F8242084F841002068C168AA
:1023100021F40051C160204600F024FD20680169CD
:1023200021F4904101612068416921F02A01416155
:102330002068C16841F40051C1606564202084F8C0
:10234000410084F842006563002070BD70B586B01E
:10235000002400940194029403942B4E03682B49AB
:10236000022003222A4DB34221D18B6943F48043DA
:102370008B618B6903F4804304938B6943F00403FE
:102380008B618969039201F0040104910102CDE996
:10239000001069462846FFF719F92815CDE9000411
:1023A000694628460294FFF711F906B070BD194E30
:1023B000B342FAD1CB6943F40033CB61CB6903F468
:1023C000003304938B6943F004038B6189690392A2
:1023D00001F0040104910421CDE90010694628466A
:1023E000FFF7F4F80820CDE9000469462846029476
:1023F000FFF7ECF8002205212620FFF77BFA2620C4
:10240000FFF76AFAD1E700000038014000100240EF
:10241000000801400044004090F84230202B01D0D9
:102420000220704721B11AB10023036300F0F6BC0B
:102430000120704710B500680E49884218D10E4936
:102440004888B0F5FF7F05D80C4B0A781A54401C19
:10245000488006E0002048804FF400710748FDF7EF
:10246000D8FEBDE81040012203490548FFF7D4BF5C
:1024700010BD00000044004018000020D0010020E2
:10248000400100202DE9F843044690F841009846A9
:1024900016460D46202802D00220BDE8F88385B1FB
:1024A0007EB100206064212084F84100FFF784F9A8
:1024B000A6848146E684A0682027B0F5805F02D01C
:1024C00003E00120E9E7206910B12E4600250EE067
:1024D00000260CE08021204600F0BBFCA8B9C6B164
:1024E00016F8010B21684860E08C401EE084E08C07
:1024F0004B464FF00002CDF800800028EAD14FF0A3
:102500004001204600F0A5FC40B184F84170032052
:10251000C3E735F8020BC0F30800E3E784F8417025
:102520000020BAE77047FEE70F4810B50D4901607B
:102530003021416000214FF480328160C0E90312F4
:1025400052014261017641768176C1760177417709
:10255000FEF7B6FE002803D0BDE81040FEF786BCAB
:1025600010BD000000640040D000002010B5154AE6
:102570000C21052001F04AFA134C124A0C2120616B
:102580001832052001F042FA0E4A6061903A0021AB
:102590000E4801F09BFA0B4A20606C3A00210C486F
:1025A00001F094FA074A6060483A0021094801F0B6
:1025B0008DFA044AA060243A0021074801F086FA07
:1025C000E06010BD38530008000000203D2B0008DB
:1025D0000D2F0008D3090008E9260008F0B585B0E2
:1025E000002421480094019402940394816941F0ED
:1025F00020018161816901F020010491816941F02C
:1026000004018161816901F004010491816941F053
:10261000080181618069154F00F0080004900022D4
:102620004FF440713846FFF7C1F80125CDE9005459
:1026300069460F480295FEF7C9FF2802009001AADB
:102640001120022682E8510069463846FEF7BEFF97
:102650006802CDE90005CDE9024669463846FEF735
:10266000B5FF05B0F0BD000000100240000C0140B5
:10267000000801400C4810B50A4901604FF4E131EF
:102680004160002181600C22C160C0E904128161B7
:10269000C161FFF729FE002803D0BDE81040FEF716
:1026A000E5BB10BD00380140F80000200C4810B513
:1026B0000A4901604FF4E1314160002181600C2240
:1026C000C160C0E904128161C161FFF70DFE0028FD
:1026D00003D0BDE81040FEF7C9BB10BD0044004068
:1026E00040010020FEE7FEE786B000F01FF946A299
:1026F0000121032000F0DDF9454D6423002202A9E9
:10270000286801F051F9002879D19DF810000028BF
:1027100067D0029C2046FDF76DFE86B23046FDF77D
:1027200064FE2146FDF7EEFD3A4F3946FDF7EDFD1B
:10273000FDF760FE84B238A20121032000F0B9F950
:10274000022332460621032000F092F934A2082128
:10275000032000F0AEF9012322460921032000F0F6
:1027600087F930A20A21032000F0A3F90398FDF7AE
:1027700041FE84B22046FDF738FE0399FDF7C2FD05
:102780003946FDF7C2FDFDF735FE86B226A20121CE
:10279000042000F08EF9022322460621042000F0D6
:1027A00067F91FA20821042000F083F901233246B3
:1027B0000921042000F05CF91DA20A21042000F088
:1027C00078F90398FDF72AFE04460E460298FDF7B5
:1027D00025FECDE9004602460B4616A000F0F2FBAE
:1027E0000DE01CA20121032000F063F94FF4FA6010
:1027F00001F09EF81DA20121032000F05AF90A20E1
:1028000001F096F879E70000576169742E2E2E00CA
:10281000100000200000204154656D703A00000057
:102820002E0000004300000048756D693A2020002A
:10283000250000004F4C4544205570646174656468
:102840003A20252E3166432C20252E316625250D74
:102850000A000000496E76616C696420446174610D
:102860002052656365697665642100002020202080
:102870002020202020202020202020202020200078
:1028800070B500240021204600F0ADF8002500209E
:1028900000F043F96D1CEDB2802DF8D3641CE4B256
:1028A000082CEFD370BD10B5FFF798FE012000F0A3
:1028B00013F9BDE81040012000F016B970B50024EE
:1028C0000646802525FA04F0304000D0012000F0B3
:1028D0000BF9012000F000F9002000F0FDF8641C65
:1028E000E4B2082CEED3012000F0F6F8BDE8704009
:1028F000002000F0F1B810B5012000F0F5F801203B
:1029000000F0EAF8002000F0EFF8BDE810400020E9
:1029100000F0E2B810B5002000F0E6F8012000F069
:10292000DBF8BDE81040012000F0DEB810B5002053
:102930004FF47A720021491C9142FCD3401C904212
:10294000F8D3FFF7B0FFAE2000F0D6F8D52000F0A6
:10295000D3F8802000F0D0F8A82000F0CDF83F2078
:1029600000F0CAF8D32000F0C7F8002000F0C4F847
:10297000402000F0C1F8A12000F0BEF8C82000F00F
:10298000BBF8DA2000F0B8F8122000F0B5F881208A
:1029900000F0B2F8CF2000F0AFF8D92000F0ACF88A
:1029A000F12000F0A9F8DB2000F0A6F8302000F0BC
:1029B000A3F8A42000F0A0F8A62000F09DF88D2038
:1029C00000F09AF8142000F097F8AF2000F094F887
:1029D000BDE81040FFF754BF0246012000E050431D
:1029E000491EFCD2704710B50C4640F0B00000F014
:1029F00083F8102040EA141000F07EF804F00F0075
:102A0000BDE8104000F078B82DE9F0410746CE004F
:102A10004000083E801E15464FF0FF38F1B2C0B2AC
:102A2000FFF7E1FF1148002400EB05152819A0F578
:102A3000805090F8000E00F070F8641CE4B2082C8E
:102A4000F4D308EB4700F1B2C0B2FFF7CCFF00248B
:102A50002819A0F5805090F8080E00F05EF8641C6C
:102A6000E4B2082CF4D3BDE8F081000068530008FC
:102A70002DE9F04700241D461646884681460A2760
:102A800013E0291B0A20491EFFF7A6FFB6FBF0F052
:102A9000B0FBF7F107FB110208EB0400C1B2484696
:102AA0003032FFF7B1FF641CE4B2AC42E9D3BDE8B9
:102AB000F0872DE9F04115460E460746002406E052
:102AC0003019C1B23846FFF79FFF641CE4B22A5D9B
:102AD000002AF5D1BDE8F08102464FF4807101482B
:102AE000FEF764BE000C014002464FF4007101483D
:102AF000FEF75CBE000C014010B50446FFF7FBFE7C
:102B00007820FFF7DBFE0020FFF7D8FE2046FFF716
:102B1000D5FEBDE81040FFF7FDBE10B50446FFF737
:102B2000EAFE7820FFF7CAFE4020FFF7C7FE2046E6
:102B3000FFF7C4FEBDE81040FFF7ECBE012000F037
:102B4000F7FEFBE710B54FF0E020006902F0F6F960
:102B5000012803D0BDE8104001F0B6BE10BD30B56D
:102B60008FB028216846FDF754FB14210AA8FDF711
:102B700050FB01210804CDE9001000240294022535
:102B80000491CDE907504FF4E01009906846FEF734
:102B9000DFFF08B172B6FEE70F20CDE90A054FF45A
:102BA0008060CDE90C4002210AA80E94FEF7D4FE05
:102BB000002801D072B6FEE70FB030BD70470000AC
:102BC0000148FFF7B2B9000088010020F0B50268A3
:102BD000194B1A4C1A4D4FF08047984205D0B84215
:102BE00003D0A04201D0A84203D122F070064A6867
:102BF0003243984205D0B84203D0A04201D0A84247
:102C000003D122F44074CA6822434C6922F0800246
:102C1000224302608A68C2620A688262984201D1D5
:102C200009690163012141610169C90703D0016993
:102C300021F001010161F0BD002C014000040040C1
:102C40000008004010B5406A0021C185C184FFF72B
:102C500013FA10BD01680C3151E8002F22F4907274
:102C600041E80023002BF5D10168143151E8002F11
:102C700022F0010241E80023002BF5D1016B01296C
:102C800009D101680C3151E8002F22F0100241E80F
:102C90000023002BF5D1202180F842100021016390
:102CA000704708B590F84210222901D0022008BDD3
:102CB00082684FF480539A4201D1016921B1816A3F
:102CC0009A421BD04AB10AE00268816A5268C2F394
:102CD00008020A80816A891C08E0026972B10268F0
:102CE000526802F07F020A70816A491C8162C18DBC
:102CF000491E0904090CC18503D01BE00268526813
:102D0000F1E70168CA6822F02002CA600168CA6857
:102D100022F48072CA6001684A6922F001024A61A5
:102D2000202180F8421000214163026B012A03D068
:102D3000FFF780FB002008BD016301680C3151E8FA
:102D4000002F22F0100241E80023002BF5D101688A
:102D50000A68D20602D50A6849680091818DFFF79A
:102D60008AF9E7E770B5044600680169E26821F472
:102D70004051114301612169A0680843616908431A
:102D80002168CA6841F20C639A430243CA60206812
:102D90004169A26921F44071114341611E492068D3
:102DA000884202D1FEF79EFE01E0FEF78BFE00EBAB
:102DB000C00101EB0012606864218000B2FBF0F3F7
:102DC000B3FBF1F36FF018067343B2FBF0F5B2FBFF
:102DD000F0F605EB8305322303EB0515B5FBF1F5A2
:102DE000B6FBF1F605F0F00505EB0615B2FBF0F6C3
:102DF000B2FBF0F0B0FBF1F06FF01802504306EBBD
:102E0000800003EB0010B0FBF1F0216800F00F0030
:102E10002844886070BD00000038014081628285CE
:102E2000C28500214164222180F84210016921B14C
:102E30000168CA6842F48072CA6001684A6942F057
:102E400001024A610068C16841F02001C1600020B0
:102E500070472DE9F843984617460D460446089EEC
:102E600024E0701C22D0FEF7A7FCA0EB0800B042C3
:102E70001AD8CEB12068C168490717D5802D15D062
:102E8000402D13D00168C94309070FD401680025FC
:102E9000406800902046FFF7DDFE0820606484F85B
:102EA00040500120BDE8F8830320FBE7206800685C
:102EB00035EA000004D00020B842D2D00020F1E76B
:102EC0000120F9E70148FFF7D9B8000040010020D0
:102ED0000148FEF7F7B80000D0000020FEE70FB46D
:102EE0002DE9F0410024DDE91875661E08E0394639
:102EF0007F1C3346012206A8FFF7C4FA641CA4B263
:102F0000AC42F4D3BDE8F0015DF814FB0EB5FDF75B
:102F100003FE19A000F056F8FEF74EFC04461A4EC8
:102F2000FEF74AFC0546642300226946306800F03B
:102F30003BFD0028F4D19DF808000028F0D000984F
:102F4000FDF758FA1FFA80F80198FDF753FA87B297
:102F5000281B41F288318842E2D941460BA0FDF797
:102F600087FF39460BA0FDF783FF3A4641460BA089
:102F700000F028F82C46D3E75B576946695D20537B
:102F80007461727465640A001400002074656D70C9
:102F90000000000068756D69000000005265706FE8
:102FA00072746564205769466920446174613A20EF
:102FB00074656D703D25642C2068756D693D2564D0
:102FC0000D0A00000FB4054B10B503A9044A02987E
:102FD00000F0FEF810BC5DF814FB0000E1380008BA
:102FE000CC0000200FB4084B10B504A902AA039826
:102FF00000F0EEF8044602A9002000F06CFC204628
:1030000010BC5DF814FB0000D73800080907090E52
:10301000002804DB00F1E02080F80014704700F085
:103020000F0000F1E02080F8141D704702E008C88E
:10303000121F08C1002AFAD170477047002001E032
:1030400001C1121F002AFBD1704700002DE9FF5F6C
:1030500082B00021DDE90430020DDDF840B0034309
:1030600018D044F61050A2F2FF32424315141198C2
:1030700001281FD0A5EB0B00401C5FEA000A4FF0AF
:1030800000064E4FDFF83891B046504615D5CAF1CC
:10309000000413E0119801244AA3012801D16FEA2A
:1030A0000B010298119AC0E90031C0E9024206B052
:1030B000BDE8F09FCBF10000DFE704460021404A65
:1030C000491842EB0450CDE9001012E0E00707D0A8
:1030D00032463B4640464946FDF7D8FA8046894687
:1030E00032463B4610461946FDF7D0FA06460F46D3
:1030F0006410002CEAD1DDE90401DDE90023BAF116
:10310000000F06DAFDF7C2FA42464B46FDF7BEFA5B
:1031100005E0FDF72DFB42464B46FDF729FB044633
:103120000E460022284BFDF7ABFB03D84FF0FF30D3
:10313000014607E00022254B20463146FDF7FFF906
:10314000FDF785FB102409E0002C0ADB0A2200238E
:10315000FDF78DF9039B30321A55641E50EA0102C7
:10316000F2D1641C039AC4F111031444119A012A88
:1031700003D0012208430DD10AE0084304D0002007
:103180004FF0110B119072E7A3EB0B056D1E0DE0D4
:103190005B4504DD4FF0000205F1010504E003DAB0
:1031A0004FF00002A5F10105002AECD00298119918
:1031B000C0E90231C0E9004579E700000000144091
:1031C0000000F03F300000000000F0430000E03F4E
:1031D0002DE9FF4F95B09A46884606460025EEE158
:1031E000252877D100242746F94A0121039400E0DD
:1031F000044316F8013F203B01FA03F01042F7D1D7
:1032000030782A2811D06FF02F033078A0F13002E7
:10321000092A16D8039A44F0020402EB820203EB57
:1032200042021044761C0390EFE758F8042B0392F7
:10323000002A03DA504244F40054039044F002049C
:10324000761C30782E2816D116F8010F44F00404AD
:103250002A280DD06FF02F023078A0F13003092B0F
:1032600009D807EB870302EB4303C718761CF3E783
:1032700058F8047B761C30786C280FD006DC4C287C
:1032800017D068280DD06A2814D104E0742810D013
:103290007A280FD10DE044F400140AE044F48014BD
:1032A00001E044F440147278824202D104F58014A3
:1032B000761C761C307866280BD013DC582877D023
:1032C00009DC002875D04528F6D04628F4D04728D8
:1032D0001AD193E118E0632835D0642879D06528A5
:1032E00012D18BE1702873D008DC6728F1D06928EF
:1032F0006FD06E280DD06F2806D1ACE073282CD08B
:10330000752874D0782853D05246179990476D1C71
:1033100054E1C4F30250022809D003280DD0D8F894
:10332000001004280DD00D6008F1040846E1D8F81B
:103330000010EA17C1E90052F6E7D8F800100D8036
:10334000F2E70D70F0E718F8041B8DF8001000206C
:103350008DF80100EB46012003E058F804BB4FF064
:10336000FF3061074FF0000102D40DE009F10101C7
:103370008946B9420FDA8145F8DB1BF809100029AC
:10338000F4D108E009F1010189468142FADB1BF81A
:1033900009100029F6D103985346A0EB09072146EE
:1033A0003846179A00F080FA284400EB090507E038
:1033B00044E008E10DE01BF8010B524617999047D5
:1033C000B9F10109F7D2534621463846179AF2E07F
:1033D00039E00A21C4F302524FF0000B0091022A97
:1033E00006D058F8040BC117032A09D00AE023E0DD
:1033F00008F1070020F00702F2E80201904605E01C
:1034000000B2C117042A01D140B2C117002906DA5F
:103410000A460021404261EB02012D2202E0220512
:1034200004D52B228DF80420012203E0E20701D00D
:103430002022F7E7914657E00A2100E010214FF0E3
:10344000000B00910BE010214FF0000B44F004043E
:103450000827009103E008204FF0000B0090C4F310
:103460000252022A05D058F8040B0021032A08D082
:1034700008E008F1070020F00702F2E80201904698
:1034800003E080B2042A00D1C0B24FF00009220745
:103490002AD53278702A07D0DDF800C08CF0100CE5
:1034A0005CEA0B0C05D00EE040228DF804200122CE
:1034B00008E050EA010306D030238DF804308DF87F
:1034C000052002229146009B83F0080353EA0B0378
:1034D0000AD150EA010201D1620705D530228DF8E8
:1034E00004204FF001097F1E3278582A04D039A2F7
:1034F0000C920CAA02920BE03BA2F9E75B46009A01
:10350000FCF7B5FF0C9B9B5C029A521E0292137053
:1035100050EA0102F2D1029804A9081A00F1200B26
:10352000600702D524F4803400E001275F4502DD06
:10353000A7EB0B0000E0002000EB0B0100900398CC
:103540004944401A0390E00306D453462146179A93
:10355000039800F0A9F90544002706E001A85246A7
:10356000C05D179990476D1C7F1C4F45F6DBE0034B
:103570000CD553462146179A039800F095F9054457
:1035800004E030205246179990476D1C0099481E60
:1035900000900029F5DC08E0029802995246007874
:1035A000491C0291179990476D1CBBF10001ABF1CA
:1035B000010BF1DC5BE100F065F90544761C307825
:1035C00000287FF40DAE19B02846BDE8F08F00004A
:1035D00009280100303132333435363738396162E9
:1035E00063646566000000003031323334353637AD
:1035F000383941424344454600000000600700D48A
:10360000062708F1070020F00700F0E802238046B3
:1036100003F0004C5FEA0C0001D097A009E0200500
:1036200001D596A005E0E00701D095A001E0AFF23A
:103630004C001390307823F0004365280CD006DC52
:10364000452809D046281DD047287FD13BE0662871
:1036500018D067287AD136E00021112F01DB112024
:1036600000E0781CCDE9000104A90CA8FFF7EEFCEE
:10367000DDE90D010C9A4FF0000B07F101091092E2
:1036800000914EE04FF000400097CDE9011004A9F1
:103690000CA8FFF7DBFCDDE90D020C9B0F994FF046
:1036A000000B91461093009211B9791C00EB0109AF
:1036B000B7EB090003D4C0F1FF3B07F10109A9EB07
:1036C0000700019042E0012F00DA01270021112FAD
:1036D00001DD112000E03846CDE9000104A90CA865
:1036E000FFF7B4FCDDE90D010C9A00914FF0000BDF
:1036F000B946109221070FD4009A4A4503DA914641
:1037000001E0A9F10109B9F1010F05DD109AA9F154
:103710000101515C3029F4D0B84202DA10F1040FF3
:1037200003DA0121CDE9011010E0002803DC834415
:10373000A9EB000102E0411C494500DD8946A0EBF0
:103740000B00401C01904FF000400290200705D470
:103750000198484502DB4FF0FF30019000208DF8C2
:103760004B0002980DF14B07B0F1004F25D002201D
:103770000C902B200D90029800280CDA4042029009
:103780002D200D9007E00A210298FCF75AFE3031F7
:10379000029007F8011D0C99481E0C900029F2DCDC
:1037A00002980028EFD1791E0D980870307800F04B
:1037B000200040F0450007F8020D11A8C01BC01DF5
:1037C00002901398007800B1012000EB09010198E4
:1037D00001EBE071029801440398401A401E0390E7
:1037E000E00306D453462146179A039800F05CF88C
:1037F00005441398007818B15246179990476D1CEC
:10380000E00323D553462146179A039800F04CF85D
:1038100005441BE0BBF1000F07DB0098584504DDB1
:103820001098179910F80B0001E0179930205246B4
:10383000904701980BF1010B401E05F10105019025
:1038400004D12E205246179990476D1CB9F1000102
:10385000A9F10109DEDC05E017F8010B52461799C2
:1038600090476D1C0299481E02900029F4DC5346D3
:103870002146179A03989EE62D0000002B000000B9
:10388000200000002DE9F041044600251E461746A1
:10389000880404D405E039462020B0476D1C641E1E
:1038A000F9D52846BDE8F0812DE9F0410446002510
:1038B0001E469046C80301D5302700E02027880423
:1038C00004D505E041463846B0476D1C641EF9D565
:1038D0002846BDE8F0810A68531C0B6010707047E1
:1038E00013B54FF0FF33012269460248FEF7CAFDC7
:1038F00000981CBDF8000020FDF76CFFFFF72FF9C2
:10390000FEF76CFEFEF710FEFEF7B4FEFEF7CEFEED
:10391000012205490548FEF77FFD00F017F8FEF784
:1039200025FE00F025F8FEE71800002040010020E9
:1039300010B5EFF3058111B16FF0050403E0002429
:1039400008B100F087FE204610BD0000EFF30580AF
:1039500010B16FF0050070470448016811B14FF0D5
:10396000FF30704701210160002070479C0000205B
:1039700010B5EFF3058010B16FF0050010BD0848D9
:103980000168012902D04FF0FF3010BD054A002127
:1039900082F8141D0221016000F0C4FE002010BD59
:1039A0009C0000200BE000E0F8B51D466FF003021C
:1039B0006FF002064FF00004EFF30583A3B1F0B1FE
:1039C000E9B1E5B9002200926A4601F0D7F9012871
:1039D00017D10098B0B10C494FF080500860BFF388
:1039E0004F8FBFF36F8F0DE048B141B12A4601F010
:1039F00029F9012806D025B16FF0010402E0144630
:103A000000E034462046F8BD04ED00E0F8B5144669
:103A10004FF00005EFF3058212BB08B301B3A4B168
:103A2000D4E9023263B1502A1AD32269C2B167695C
:103A300000FB01F6B74213D3009500F07CFF07E0CE
:103A400072B9226962B9626952B9002200F052FF6C
:103A5000050005D00CB1216800E0002100F0C4FD94
:103A60002846F8BDF8B51D466FF003026FF0020658
:103A70004FF00004EFF30583ABB100B3F9B1F5B932
:103A80000022134600926A4601F07CF8012818D102
:103A90000098B8B10C494FF080500860BFF34F8FC9
:103AA000BFF36F8F0EE050B149B100232A4600F0FA
:103AB000B9FF012806D025B16FF0010402E01446D9
:103AC00000E034462046F8BD04ED00E02DE9FF415A
:103AD0004FEA01034FF00005EFF30581039549BB61
:103AE00040B38027182100244AB3166806B1344633
:103AF00096691EB13146761E382E02D21679F60727
:103B000003D0002004B0BDE8F081566906B1B708C3
:103B1000D2F808C0BCF1000F0DD0D5685C2D18D3C9
:103B200012693AB136B18DE806103A46214601F0E5
:103B3000DAF903900DE0D6685EB912694AB903AAB2
:103B4000CDE90012BAB2214601F0A0F9012800D057
:103B500003950398D6E700002DE9F041134C0F467A
:103B60000546E6682068001D00F040FC681C07D18F
:103B700037B12168BDE8F0410D48091D00F086BC51
:103B800020683544B5424560216805D2A06BBDE888
:103B9000F041091D00F062BC606B091D00F05EFC85
:103BA000A06A854200D2A562BDE8F0814C000020E9
:103BB000C00800202DE9F041054600F073FC2D4CB3
:103BC000A068401CA06020682B4F10B1606930B322
:103BD0002BE02560A068012827D1002606EB86008F
:103BE00007EB800000F02CFC761C382EF6D323481F
:103BF00000F026FC2148143000F022FC1F48283039
:103C000000F01EFC1D483C3000F01AFC1B485030F0
:103C100000F016FC194860631430A06305E02068CA
:103C2000E96AC06A884200D82560606A401C606208
:103C30006864E86A2169884200D9206100EB80004D
:103C400007EB8000291D00F021FC00F04BFC6069AF
:103C500000280CD02068E96AC06A884207D2084967
:103C60004FF080500860BFF34F8FBFF36F8FBDE8F8
:103C7000F08100004C00002010040020700800209B
:103C800004ED00E038B500F00DFC104C2068C8B918
:103C90000F4800F0D5FB0E48143000F0D1FB0C4863
:103CA000E060143020610A4B0020F03B009003F1EB
:103CB000500210210A2000F03EFE206010B105A144
:103CC00000F092FCBDE8384000F00CBC88000020F9
:103CD000C4090020546D72510000000030B4026C21
:103CE0000B46002A0BD0C1681144C1608468A14210
:103CF00001D30168C16030BC1846FCF771BA30BC12
:103D000070472DE9F041856B174604460026026C8A
:103D100082B1C7B1E068FCF763FAE168206C091A68
:103D2000E1602268914202D2A168081AE060022F85
:103D300016D017E02068A8B9A06801F077F9064608
:103D40000020A0600EE06068FCF74AFA216C606811
:103D500008446060A168884204D32068606001E084
:103D600005B16D1E6D1CA5633046BDE8F08110B530
:103D7000044690F8590058B101280CD002280FD001
:103D8000502080F31188BFF34F8FBFF36F8FFEE792
:103D9000206B00F0BBFB2046BDE8104000F0B6BB36
:103DA00010BD000010484FF4A051420706D0C01DBE
:103DB0000D4920F00700411AC1F5A0510B4A00231C
:103DC0000144C2E900030839183A21F007011160E3
:103DD0004B600B600B1AC0E9001393604FF000407A
:103DE0005360506170470000A4100020B80000200C
:103DF000144E154CA6F29C474FF08058DFF84C90BB
:103E000012E000BF00F04EFBF068C568281D00F00E
:103E1000EDFAA068401EA0606068401E606000F07F
:103E200061FB2846FFF7A3FF60680028EAD13868E5
:103E30000128F9D9C9F80080BFF34F8FBFF36F8F06
:103E4000F2E70000AC0800204C00002004ED00E088
:103E500070B51D46049C51B1C4F80020C4E90F019F
:103E60000121204600F09AFD84F84C5070BD24607A
:103E7000F4E700002DE9F05F8846DDE90B94154674
:103E8000834691009A460A9EA522206BFCF7BAF958
:103E90006FF00301206B01EB8501084420F0070758
:103EA000780707D0502080F31188BFF34F8FBFF3FE
:103EB0006F8FFEE70025B8F1000F0FD05FF0000014
:103EC000221818F8001082F8341018F8001011B1F8
:103ED000401C1028F4D384F8435001E084F8345097
:103EE000382E00D33726E662C4E91365201D00F0A2
:103EF000B2FA04F1180000F0AEFA2461C6F13800FD
:103F00006462A061656584F8585052465946384647
:103F100000F05AFA2060B9F1000F01D0C9F8004052
:103F2000BDE8F09F30B5114900E011460A688242B1
:103F3000FBD34B685C18844203D140681844486046
:103F4000084643681C18944209D1084C183C246860
:103F5000A24209D052681A4442600A68126802609C
:103F6000814200D0086030BD0460F9E7B80000204D
:103F700070B5002441600B4D0061914206D8D11A02
:103F80008269914206D2011D286907E09A4203D254
:103F9000994201D3012403E0011DE86800F05EFAB4
:103FA000204670BD8800002010B5044600F07AFA63
:103FB000A06B28B15FF0000400F094FA204610BD19
:103FC0000124F9E730B589B03C4D6EE00498002833
:103FD00006DADDE90601059A90470498002864DBBB
:103FE000069C606910B1201D00F000FA03A800F0E3
:103FF000D7F8024604980A2857D2DFE800F00505F2
:10400000052D334A05052D3394F8280040F00100B2
:1040100084F828000599A069059B01442046FFF714
:10402000A7FF68B3216A2046884794F82800400714
:104030003BD5002000900598A1690023421819463D
:10404000204601F0FDF8D8B9502080F31188BFF365
:104050004F8FBFF36F8FFEE714F8280F20F0010099
:10406000207022E094F8280040F0010084F8280035
:104070000598A06128B1811813462046FFF778FF04
:1040800013E0502080F31188BFF34F8FBFF36F8F81
:10409000FEE794F82800810703D4204600F036FAA2
:1040A00003E020F0010084F82800002204A9286819
:1040B00000F0C8FD002889D109B030BD880000207B
:1040C0002DE9FC410F46054600F070FB01A800F009
:1040D00067F80446019818B101F020F8BDE8FC81AA
:1040E000254EAFB130690068D0B30027291B3A468E
:1040F000306800F08DFA01F011F80028EED11F4968
:104100004FF080500860BFF34F8FBFF36F8FE5E72C
:10411000A542EBD801F002F8F0682746C068C468F1
:10412000201D00F063F994F82800410719D5A06913
:104130002B4641193A462046FFF71AFFA8B1002046
:104140000346014600902A46204601F079F860B9FE
:10415000502080F31188BFF34F8FBFF36F8FFEE7BE
:1041600007E020F0010084F82800216A20468847F3
:10417000B4E70127BAE700008800002004ED00E062
:104180000648416B096829B1416BC968C96849682B
:10419000816270474FF0FF31FAE700004C000020C9
:1041A00070B5054600F0D8FE064E0446B06884425D
:1041B00003D200F009F8012000E00020286020462A
:1041C000B46070BD88000020F8B5194D20E0C068CB
:1041D000C4680668201D00F009F9216A2046884756
:1041E00094F82800400713D5A0693044B04206D99E
:1041F00024616060211DE86800F030F908E00020CB
:104200000346014600903246204601F019F838B1C5
:10421000E86801680029DAD12969C5E90310F8BD09
:10422000502080F31188BFF34F8FBFF36F8FFEE7ED
:104230008800002008484068401C4FF0500080F380
:10424000118804D0BFF34F8FBFF36F8FFEE7BFF32A
:104250004F8FBFF36F8FFEE7C0000020074CE06870
:10426000016841B1C0680021D0F80000FFF728FFC5
:10427000FFF7A8FEF3E701210020F7E78800002000
:104280002DE9F041044600F00DF994F9455004F190
:10429000240609E0606A48B1304600F007FF08B123
:1042A00000F006FA6D1E6DB2002DF3DC4FF0FF3604
:1042B00084F8456000F016F900F0F4F894F94450E1
:1042C00004F1100709E0206948B1384600F0EEFE1D
:1042D00008B100F0EDF96D1E6DB2002DF3DC84F82D
:1042E0004460BDE8F04100F0FDB800002DE9F04168
:1042F0000546002700F05AFA324E306808B9FFF739
:1043000051FD706905424ED1C5B3083568070ED01E
:1043100005F00700C0F108000544680707D05020E9
:1043200080F31188BFF34F8FBFF36F8FFEE72DB37C
:104330007068854237D82348183001460C6801E080
:1043400020460C466168A94202D221680029F7D1B3
:1043500031688C4227D0076821680160606808379F
:10436000411B10290FD96019420708D0502080F353
:104370001188BFF34F8FBFF36F8FFEE713E04160EB
:104380006560FFF7CFFD61687068401A7060B268C1
:10439000904200D2B060706901430020C4E900017E
:1043A000F068401CF06000F0B9FE780707D050209C
:1043B00080F31188BFF34F8FBFF36F8FFEE738464E
:1043C000BDE8F081A000002010B5031F4FF08074FD
:1043D0001C601B1F21F001011960191F024B0B60AB
:1043E000143940380A6010BD35420008D0E9013266
:1043F00001699A60D0E901235A604A68824201D17A
:1044000082684A60002202610868401E08600868ED
:1044100070470000034B036003F15C0008608020DC
:1044200010607047EC090020044B036003F15C004E
:1044300008604FF48070106070470000480C002046
:1044400000F108014FF0FF32C0E90112C1600161C3
:1044500000210160704700210161704730B50B6891
:104460005A1C02D000F1080202E0026904E0224670
:10447000546825689D42FAD953684B6099608A60F8
:10448000516008610168491C016030BD42684A60A2
:1044900093688B6093685960916008610168491C5A
:1044A00001607047502080F31188BFF34F8FBFF336
:1044B0006F8F0A494868401C486001280CD10848A1
:1044C000006810F0FF0F07D0502080F31188BFF371
:1044D0004F8FBFF36F8FFEE770470000C0000020D2
:1044E00004ED00E00849486828B1401E486001D149
:1044F00080F311887047502080F31188BFF34F8FED
:10450000BFF36F8FFEE70000C000002070B50028E9
:104510002AD0164DA0F1080460686969084207D1E5
:10452000502080F31188BFF34F8FBFF36F8FFEE7EA
:1045300022683AB1502080F31188BFF34F8FBFF348
:104540006F8FFEE78843606000F030F9606869684B
:10455000084468602046FFF7E5FC2869401C286194
:10456000BDE8704000F0DABD70BD0000A000002082
:104570004FF0E02000210161816105494FF47A721A
:104580000968B1FBF2F1491E4161072101617047E1
:104590004800002010B5FBF7FDFD114910280ED38F
:1045A00000F1E02090F8F0030A78904207D2502002
:1045B00080F31188BFF34F8FBFF36F8FFEE7094879
:1045C0000068896800F4E060884207D9502080F3D1
:1045D0001188BFF34F8FBFF36F8FFEE710BD000050
:1045E000C00000200CED00E010B5084B002200BF19
:1045F00053F832401CB1521C082AF9D310BD43F8BD
:10460000321003EBC201486010BD0000D00300204F
:1046100070B515460E460446FFF744FF94F9441062
:104620000020491C01D184F8440094F94510491C2C
:1046300001D184F84500FFF755FFA06B28B92A4641
:10464000314604F1240000F051F82046BDE87040E6
:10465000FFF716BE10B5020014D00F48006B38B13A
:10466000502080F31188BFF34F8FBFF36F8FFEE7A9
:1046700000F09CF800211046FFF76EFA00F04EFDA6
:10468000002807D105494FF080500860BFF34F8FD5
:10469000BFF36F8F10BD00004C00002004ED00E060
:1046A00002490A6A0260C968416070474C000020F4
:1046B00001490120C86170474C00002010B50C462C
:1046C00050B1094909681831FFF7C8FE2046BDE816
:1046D00010400121FFF740BA502080F31188BFF34A
:1046E0004F8FBFF36F8FFEE74C00002070B514466C
:1046F0000D4668B10A4909681831FFF7C7FE0CB1C9
:104700004FF0FF3521462846BDE87040FFF724BA38
:10471000502080F31188BFF34F8FBFF36F8FFEE7F8
:104720004C00002030B587B00024039405AA04A9EA
:1047300003A80494FFF76EFEDDE903010094CDE9C0
:104740000110002315A11748059A00F0CCFB164D67
:104750000028E8621FD000F043FD012809D0401C6A
:1047600019D1502080F31188BFF34F8FBFF36F8FA3
:10477000FEE7502080F31188BFF34F8FBFF36F8F98
:104780004FF0FF30A86201206861EC6007B0BDE81F
:10479000304000F045B807B030BD000049444C45FA
:1047A00000000000F13D00084C0000200248016BB1
:1047B000491C0163704700004C000020164810B5EA
:1047C000016B11B10121C16110BD0021C1610169FD
:1047D000124A01E0B9B1491E01EB810352F82330BE
:1047E000002BF7D001EB810302EB830202F10804F6
:1047F00053685B685360A34201D15B685360DA6819
:104800000260016110BD502080F31188BFF34F8F0B
:10481000BFF36F8FFEE700004C0000201004002063
:104820001CB5264908780190FF20087008788DF89B
:1048300000009DF800009DF8002000F0F00090427C
:1048400007D0502080F31188BFF34F8FBFF36F8FD5
:10485000FEE79DF800001A4C00F050002070072081
:10486000A06005E09DF8002052008DF80020401E59
:104870009DF800201206F5D4A060032807D0502030
:1048800080F31188BFF34F8FBFF36F8FFEE74FF4B4
:104890004070A060019808700A48016841F47001F6
:1048A0000160016841F070410160FFF761FE002086
:1048B0006060FBF739FC00201CBD000000E400E054
:1048C000C000002020ED00E010B5502080F31188DA
:1048D000BFF34F8FBFF36F8F00F044FB18B1044953
:1048E0004FF080500860002080F3118810BD000058
:1048F00004ED00E0F8B517460E46050013D005FBA1
:1049000006F05030FFF7F2FC04000AD0002084F8D3
:10491000460004F150023B46314628460094FFF71A
:1049200097FA2046F8BD502080F31188BFF34F8FCF
:10493000BFF36F8FFEE738B5049D18B153B1CAB10C
:1049400081B120E0502080F31188BFF34F8FBFF377
:104950006F8FFEE7502080F31188BFF34F8FBFF3B6
:104960006F8FFEE7502080F31188BFF34F8FBFF3A6
:104970006F8FFEE739B1502080F31188BFF34F8F5E
:10498000BFF36F8FFEE750241C46012384F84630A6
:104990002B460094FFF75CFA204638BD70B50D46F3
:1049A000040025D0FFF77EFDD4E90F20216802FB2B
:1049B0000011A1600021A163216861600A46D4E969
:1049C0000F01401E00FB0121E16021464FF0FF3046
:1049D00001F8440F487004F110008DB1FFF730FD6D
:1049E00004F12400FFF72CFDFFF77CFD012070BDD2
:1049F000502080F31188BFF34F8FBFF36F8FFEE716
:104A000021690029F0D000F051FB0028ECD00449C6
:104A10004FF080500860BFF34F8FBFF36F8FE3E715
:104A200004ED00E02DE9FF4782B01D468A464FF0B5
:104A30000008040003D0BAF1000F08D011E05020A4
:104A400080F31188BFF34F8FBFF36F8FFEE7206CA9
:104A500038B1502080F31188BFF34F8FBFF36F8FB1
:104A6000FEE7022D0AD1E06B012807D0502080F329
:104A70001188BFF34F8FBFF36F8FFEE700F05EFA30
:104A80003F4F4FF000094FF0805648B9049838B1B5
:104A9000502080F31188BFF34F8FBFF36F8FFEE775
:104AA000FFF700FDA06BE16B884207D3022D05D014
:104AB0000498D0B1B8F1000F1AD01EE02A46514632
:104AC0002046FFF71EF9616A19B104F1240000F0D5
:104AD000EDFA20B13E60BFF34F8FBFF36F8FFFF74A
:104AE00001FD012006B0BDE8F087FFF7FBFC22E0E6
:104AF0006846FFF7D5FD4FF00108FFF7F3FCFFF71D
:104B000055FEFFF7CFFC94F94400401C01D184F816
:104B1000449094F94500401C01D184F84590FFF77A
:104B2000E1FC04A9684600F077F930B12046FFF7B0
:104B3000A7FB00F0F3FA0020D4E7FFF7B3FCA06B6B
:104B4000E16B884213D1FFF7CDFC04F1100004990A
:104B5000FFF7B4FD2046FFF793FB00F0DFFA0028D3
:104B60009ED13E60BFF34F8FBFF36F8F98E7FFF783
:104B7000B9FC2046FFF784FB00F0D0FA90E7000074
:104B800004ED00E02DE9F0471F46904689460400F9
:104B900003D0B9F1000F08D011E0502080F3118844
:104BA000BFF34F8FBFF36F8FFEE7206C38B15020FB
:104BB00080F31188BFF34F8FBFF36F8FFEE7022F93
:104BC0000AD1E06B012807D0502080F31188BFF391
:104BD0004F8FBFF36F8FFEE7FFF7DCFC5020EFF342
:104BE000118680F31188BFF34F8FBFF36F8FA06BD7
:104BF000E16B884206D3022F04D0002086F311888F
:104C0000BDE8F08794F94550A06B3A4649462046E6
:104C1000FFF777F8681C04D06D1C84F8455001201C
:104C2000ECE7606A0028FAD004F1240000F03EFAB4
:104C30000028F4D0B8F1000FF1D00121C8F800101D
:104C4000EDE700002DE9F747002683B08A4604000F
:104C500003D0BAF1000F08D011E0502080F3118882
:104C6000BFF34F8FBFF36F8FFEE7206C38B150203A
:104C700080F31188BFF34F8FBFF36F8FFEE700F013
:104C80005DF9DFF8F4804FF000094FF0805748B924
:104C9000059838B1502080F31188BFF34F8FBFF3D0
:104CA0006F8FFEE7FFF7FEFBA56BC5B151462046AF
:104CB000FFF714F86D1EA563206950B104F11000D0
:104CC00000F0F4F928B1C8F80070BFF34F8FBFF3BC
:104CD0006F8FFFF707FC012006B0BDE8F08705984D
:104CE00008B11EB106E0FFF7FDFB27E06846FFF7BD
:104CF000D7FC0126FFF7F6FBFFF758FDFFF7D2FBC5
:104D000094F94400401C01D184F8449094F9450082
:104D1000401C01D184F84590FFF7E4FB05A96846E3
:104D200000F07AF8002820460AD0FFF7A9FA00F030
:104D3000F5F92046FFF738F90028B3D00020CBE77B
:104D4000FFF732F990B104F124000599FFF7B6FCA2
:104D50002046FFF795FA00F0E1F90028A2D1C8F843
:104D60000070BFF34F8FBFF36F8F9BE72046FFF7B5
:104D700087FA00F0D3F995E704ED00E02DE9F0475C
:104D800090468946040003D0B9F1000F08D011E025
:104D9000502080F31188BFF34F8FBFF36F8FFEE772
:104DA000206C38B1502080F31188BFF34F8FBFF3D0
:104DB0006F8FFEE7FFF7EEFB5020EFF3118680F3D5
:104DC0001188BFF34F8FBFF36F8FA76BF7B194F9C3
:104DD000445049462046FEF781FF7F1EA763681CAA
:104DE00004D06D1C84F84450012010E02069002894
:104DF000FAD004F1100000F059F90028F4D0B8F10D
:104E0000000FF1D00121C8F80010EDE7002086F373
:104E10001188BDE8F08700002DE9F0410C4605003F
:104E200011D0C4B1FFF73EFB174BDA686E682068FB
:104E3000911B471C17D02F681B6A9F4219D09642BE
:104E400017D8012410E0502080F31188BFF34F8F52
:104E5000BFF36F8FFEE7502080F31188BFF34F8FB1
:104E6000BFF36F8FFEE70024FFF73CFB2046BDE851
:104E7000F081884205D9401A20602846FFF710FCCF
:104E8000F1E700202060DCE74C0000202DE9FF5F07
:104E90008346DDE90E87994616468A469000FFF75D
:104EA00025FA05001CD05C20FFF720FA040014D07E
:104EB0000020256384F85900CDE90240CDE9008740
:104EC0004B46324651465846FEF7D4FF2046FEF781
:104ED00071FE012004B0BDE8F09F2846FFF716FBE5
:104EE0004FF0FF30F6E7F0B585B0DDE90B640A9DC1
:104EF000A6B1DCB15C2700972663022684F85960CE
:104F0000002604AFCDE90246CDE90057FEF7B2FF17
:104F10002046FEF74FFE049805B0F0BD502080F308
:104F20001188BFF34F8FBFF36F8FFEE7502080F3E0
:104F30001188BFF34F8FBFF36F8FFEE705484169BC
:104F400019B1006B18B10020704701207047022092
:104F5000704700004C0000200148C0687047000006
:104F60004C0000202DE9F0412E4C0027206B28B189
:104F7000A069401CA0613846BDE8F081E668761C57
:104F8000E66013D1606B006838B1502080F311885F
:104F9000BFF34F8FBFF36F8FFEE7606BA16B616351
:104FA000A063206A401C2062FFF7EAF8A06ADFF8DD
:104FB0007880864209D3606B0068A0B1606BC068DE
:104FC000C5686868864211D2A0622068C06A00EB9A
:104FD000800158F82100012800D90127E069002844
:104FE000C9D00127C7E74FF0FF30EDE7281DFFF7D5
:104FF000FDF9A86A18B105F11800FFF7F7F9E86A9A
:105000002169884200D9206100EB800108EB810012
:10501000291DFFF73BFAE86A2168C96A8842CAD3AA
:105020000127C8E74C0000201004002070B50400E0
:105030004FF0000133D01B4D2868844207D0502028
:1050400080F31188BFF34F8FBFF36F8FFEE7206DA2
:1050500038B1401E2065E36CE26A9A421FD040B12D
:105060001DE0502080F31188BFF34F8FBFF36F8F87
:10507000FEE7201DFFF7BAF9E06CE062C0F13800EE
:10508000A061E06A2969884200D92861064900EBDD
:10509000800001EB8000211DFFF7F8F9012108468F
:1050A00070BD00004C0000201004002070B5C068E6
:1050B000C46854B104F118000646FFF797F9144D7F
:1050C000286B50B13146134815E0502080F3118809
:1050D000BFF34F8FBFF36F8FFEE7201DFFF786F9F9
:1050E000E06A2969884200D928610B4900EB8000F9
:1050F00001EB8000211DFFF7C9F9E06A2968C96A40
:10510000884202D90120E86170BD002070BD000016
:105110004C00002098080020100400202DE9F047E2
:105120002C4D00242746286B38B1FFF7BBF9286BBC
:10513000401E2863286B40B146E0502080F3118860
:10514000BFF34F8FBFF36F8FFEE7A968224E012098
:10515000D1B3A6F5916980463068E0B1F068C468C3
:1051600004F11800FFF742F9201DFFF73FF9E06A4C
:105170002969884200D9286100EB800109EB810090
:10518000211DFFF783F9E06A2968C96A8842E3D3E1
:10519000C5F81C80E0E70CB1FEF7F2FFAC694CB13A
:1051A0004FEA0806FFF7DEFE00B1EE61641EF9D19A
:1051B0000020A861E86938B108490127380708606C
:1051C000BFF34F8FBFF36F8FFFF78CF93846BDE801
:1051D000F08700004C0000209808002004ED00E05B
:1051E00010B586B0FEF74EFD114C2068B8B1002016
:1051F0000390049005AA04A903A8FFF715F9DDE9B7
:10520000032102208DE8070000230AA10B48059A1C
:10521000FFF769FE606010B106B0012010BD50209C
:1052200080F31188BFF34F8FBFF36F8FFEE700004D
:1052300088000020546D7220537663005D420008A0
:105240002DE9FF411E46134602000A9D4FF0000063
:1052500016D0144C2768002F0FD0CDE9001302920E
:10526000062917DAFFF76AFE02284FF000030FD075
:10527000002269462068FFF7D5FB04B0BDE8F08145
:10528000502080F31188BFF34F8FBFF36F8FFEE77D
:105290002A46EEE70023324669463846FFF772FC9D
:1052A000EBE7000088000020FC5D00080000000023
:1052B00000000000000000000000000000020000EC
:1052C000180000000000000000000000F05D000871
:1052D00000000000000000000000000000000000CE
:1052E000000400000A0000000000000000000000B0
:1052F000E85D000800000000000000000000000061
:1053000000000000000400000B000000000000008E
:1053100000000000DC5D000800000000000000004C
:105320000000000000000000000200000B00000070
:105330000000000000000000C45D00080000000044
:10534000000000000000000000000000000000005D
:10535000D05D000800000000000000000000000018
:10536000000000000000000000000000000000003D
:105370000000000000000000000000F80000000035
:10538000000000333000000000100C06100C060076
:10539000000000000000000040C07840C0784000DD
:1053A000043F04043F040400007088FC083000003F
:1053B000001820FF211E0000F008F000E018000097
:1053C00000211C031E211E0000F008887000000050
:1053D0001E2123241927211010160E0000000000A2
:1053E0000000000000000000000000E018040200BF
:1053F000000000071820400000020418E000000030
:105400000040201807000000404080F0804040002D
:105410000202010F01020200000000F00000000083
:105420000101011F01010100000000000000000057
:1054300080B07000000000000000000000000000CC
:105440000001010101010101000000000000000055
:1054500000303000000000000000000080601804F0
:10546000006018060100000000E010080810E000CD
:10547000000F102020100F00001010F80000000096
:105480000020203F202000000070080808887000DD
:10549000003028242221300000300888884830005D
:1054A0000018202020110E000000C02010F800007D
:1054B00000070424243F240000F808888808080016
:1054C0000019212020110E0000E01088881800002B
:1054D000000F112020110E0000380808C8380800FD
:1054E0000000003F0000000000708808088870007D
:1054F000001C222121221C0000E010080810E000FE
:105500000000312222110F00000000C0C000000086
:1055100000000030300000000000008000000000AB
:1055200000008060000000000000804020100800A3
:10553000000102040810200040404040404040006C
:105540000404040404040400000810204080000047
:105550000020100804020100007048080808F0004C
:105560000000003036010000C030C828E810E0001C
:105570000718272423140B000000C038E0000000A7
:10558000203C23020227382008F888888870000011
:10559000203F202020110E00C030080808083800E5
:1055A000071820202010080008F808080810E0005C
:1055B000203F202020100F0008F88888E8081000FD
:1055C000203F20202320180008F88888E8081000D1
:1055D000203F200003000000C03008080838000009
:1055E00007182020221E020008F808000008F8080A
:1055F000203F210101213F20000808F80808000091
:105600000020203F2020000000000808F8080800C3
:10561000C08080807F00000008F888C0281808003B
:10562000203F20012638200008F808000000000074
:10563000203F20202020300008F8F800F8F808006B
:10564000203F003F003F200008F830C00008F80865
:10565000203F200007183F00E01008080810E00075
:105660000F10202020100F0008F808080808F0008C
:10567000203F210101010000E01008080810E000AF
:105680000F18242438504F0008F888888888700044
:10569000203F2000030C30200070880808083800E4
:1056A0000038202121221C00180808F808081800DA
:1056B0000000203F2000000008F808000008F8085B
:1056C000001F202020201F000878880000C838080C
:1056D000000007380E010000F80800F80008F80084
:1056E000033C0700073C030008186880806818081E
:1056F00020302C03032C30200838C800C83808009C
:105700000000203F2000000010080808C8380800EA
:105710002038262120201800000000FE020202008E
:105720000000007F40404000000C30C0000000003E
:10573000000000010638C00000020202FE00000066
:10574000004040407F00000000000402020204000C
:105750000000000000000000000000000000000049
:105760008080808080808080000202040000000031
:105770000000000000000000000080808080000029
:105780000019242222223F2008F800808000000017
:10579000003F112020110E000000008080800000DA
:1057A000000E112020201100000000808088F800E9
:1057B000000E112020103F2000008080808000001B
:1057C000001F222222221300008080F0888888187F
:1057D0000020203F2020000000008080808080008A
:1057E000006B94949493600008F80080808000001F
:1057F000203F210000203F200080989800000000FA
:105800000020203F20200000000000809898000029
:1058100000C08080807F000008F800008080800049
:10582000203F24022D302000000808F8000000006E
:105830000020203F20200000808080808080800029
:10584000203F20003F20003F8080008080800000BB
:10585000203F210000203F20000080808080000049
:10586000001F202020201F0080800080800000007A
:1058700080FFA12020110E000000008080808000A9
:10588000000E112020A0FF8080808000808080009A
:1058900020203F21200001000000808080808000C7
:1058A0000033242424241900008080E0808000003C
:1058B0000000001F20200000808000000080800089
:1058C000001F202020103F208080800000808080EA
:1058D00000010E300806010080800080008080807A
:1058E0000F300C030C300F0000808000808080009F
:1058F0000020312E0E3120008080800000808080CA
:1059000080818E7018060100008080808080800079
:105910000021302C2221300000000000807C020297
:1059200000000000003F404000000000FF000000B9
:1059300000000000FF0000000002027C8000000068
:105940000040403F00000000000601010202040484
:1059500000000000000000001060028C0000FE92B9
:1059600092929292FE00000004047E01407E424228
:105970007E427E42427E40000000FC242424FC251E
:105980002624FC242424040040308F80844C552598
:105990002525554C808080001060028C00FE92927C
:1059A00092929292FE00000004047E014448507FCF
:1059B00040407F50484440000004047454545556FD
:1059C0005454547404040000848341211D050505CA
:1059D00005057D818185E3004040424458C0407FF9
:1059E00040C05048464040008080402018070000DA
:1059F000003F40404040780000FE424242FE0042EC
:105A0000A29E82A2C2BE0000806F080828CF0000BC
:105A10002FC8080828CF00000004047454545556B9
:105A20005454547404040000848341211D05050569
:105A300005057D818185E3001010D0FF9014E4AF4F
:105A4000A4A4A4AFE4040000040300FF00894B2ACF
:105A50001A0E1A2A4B888000101090909090901087
:105A600010FF101011161000002060203F101010C1
:105A700000030C102040F800000000F8888C8A8990
:105A8000888888F800000000000000FF4444444477
:105A9000444444FF000000004044C44444444010D7
:105AA00010FF101010F00000103C131014B840301C
:105AB0000E014080403F000000002424242424FCE8
:105AC0002222222322000000020202020242827FDE
:105AD00002020202020202004044C4444444401054
