:020000040800F2
:10000000802600209D010008212E0008B72B000843
:100010001D2E00089D090008193600080000000088
:1000200000000000000000000000000005010008C2
:10003000910F000800000000490100088B32000801
:10004000B7010008B7010008B7010008B7010008B0
:10005000B7010008B7010008B7010008B7010008A0
:10006000B7010008B7010008B7010008B701000890
:10007000B7010008B7010008B7010008B701000880
:10008000B7010008B7010008B7010008B701000870
:1000900009360008B7010008B7010008B7010008D9
:1000A000B7010008B7010008B7010008B701000850
:1000B000B7010008B701000809330008B7010008BC
:1000C000B7010008B7010008B7010008B701000830
:1000D000B7010008B7010008B7010008B701000820
:1000E000B7010008B7010008B7010008DFF810D019
:1000F00000F0C4FB00480047413F0008AFF3008018
:1001000080260020224B19680868B0E8F00F80F3C1
:100110000988BFF36F8F4FF0000080F311884EF015
:100120000D0E70470000000006480068006880F36C
:10013000088862B661B6BFF34F8FBFF36F8F00DFE1
:1001400000BF00BF08ED00E0EFF30980BFF36F8F41
:100150000F4B1A6820E9F00F106008B54FF05000FF
:1001600080F31188BFF34F8FBFF36F8F05F0B0F8A6
:100170004FF0000080F31188BDE808401968086856
:10018000B0E8F00F80F30988BFF36F8F704700BFAE
:1001900028000020EFF305807047000006488047E4
:1001A00006480047FEE7FEE7FEE7FEE7FEE7FEE75C
:1001B000FEE7FEE7FEE7FEE707330008ED00000874
:1001C000202A04DB203A21FA02F00021704721FAAC
:1001D00002F3D040C2F12002914008431946704713
:1001E00040EA01039B0703D009E008C9121F08C0B9
:1001F000042AFAD203E011F8013B00F8013B521E39
:10020000F9D27047D2B201E000F8012B491EFBD2AF
:1002100070470022F6E710B513460A460446194611
:10022000FFF7F0FF204610BDF0B480EA0102D40FC2
:100230004200B2EB410F02D20246084611464A0084
:1002400042D0C30DDDB2C1F3C752AD1A202D35DA4D
:10025000C1F3160141F4000204B15242C5F1200677
:1002600002FA06F12A411044B3EBD05F23D0C4B1A7
:10027000012DA0EBC35009DCF0BC4FF0004202EAB4
:10028000C352DBB200F5000000F012B9400000F1EB
:10029000807000EBC350A0F1807040EAD17049003B
:1002A00009E0490841EAC071A0EBC35000F5000025
:1002B000400800EBC350F0BC00F0F1B861420122ED
:1002C00002EB4101001BF6E7F0BC704781F00041F2
:1002D000AAE780F00040A7E780EA010210B502F02B
:1002E0000043400022D04A001FD0010E01EB1261F2
:1002F000C0F35600C2F3560240F4000042F400027C
:10030000A0FB022000047F39140400D0401C50EAF6
:10031000124001D44000491EC2B20C0604EBD010BA
:10032000401C4008802A02D003E0002010BD20F0CD
:100330000100002900DA0020184310BD30B480EA23
:10034000010202F0004530F0004221F0004013D0DD
:1003500090B1C30DD40DC2F31601C0F31600E41A18
:1003600041F4000140F400027D34914201D3641C49
:1003700000E04900002C02DA30BC002070474FF446
:1003800000000023914201D3891A034340084FEA39
:100390004101F7D151B1914202D14FF0004105E046
:1003A00002D24FF0010101E06FF0010103EBC450F4
:1003B000284430BC00F073B896230022114600F0A8
:1003C00077B820F00040C10DC0F3160040F40000E3
:1003D0007F2901DA00207047962903DCC1F19601DC
:1003E000C840704796398840704700F0004230F0AE
:1003F00000400AD0C10D01F56071C0F3160042EA59
:100400000151C20840071143704700200146704760
:1004100030B50B46014600202022012409E021FAD4
:1004200002F59D4205D303FA02F5491B04FA02F5D1
:100430002844151EA2F10102F1DC30BD2DE9F05F68
:100440000546002092469B46884606468146402443
:100450001BE02846414647462246FFF7B1FE534679
:100460005A46C01A914110D311461846224600F050
:1004700017FA2D1A67EB01084F462246012000218A
:1004800000F00EFA17EB00094E41201EA4F1010402
:10049000DFDC484631462A464346BDE8F09F002946
:1004A000A8BF7047401C490008BF20F001007047FA
:1004B00010B4B0FA80FC00FA0CF050EA010404BF5A
:1004C00010BC704749B1CCF1200421FA04F411FAB0
:1004D0000CF118BF012121430843A3EB0C01CB1DF4
:1004E0004FEA00614FEA102042BF002010BC704765
:1004F00000EBC35010440029A4BF10BC7047401C3F
:10050000490008BF20F0010010BC70472DE9FE4FE4
:10051000804681EA0300C00F0C46009021F00041A4
:1005200023F00045B8EB0200A94105D24046214620
:1005300090461C460B46024623F00040104347D02D
:10054000270DC7F30A00C3F30A510290401A019025
:1005500040286BDAC3F3130040F4801B00989246E6
:1005600020B10023D2EB030A63EB0B0B0198594631
:10057000C0F14002504600F093F906460D46504641
:100580005946019A00F09BF910EB080061410024E4
:1005900087EA115284EAE7731A4340D0009A62B3A3
:1005A000019A012A4FEA075215DC001B61EB020198
:1005B0004FF0004202EA0752CDE90042001C41F52B
:1005C000801132462B4600F09BF903B0BDE8F08F56
:1005D00040462146F9E7001B61EB0201001C41F592
:1005E000801300185B412018A2F5001747EB0301A8
:1005F00040EAD570B6196D4111E06D084FEA360634
:1006000045EAC0754FEA0752001B61EB0201001C6E
:1006100041F5801149084FEA300000195141324636
:100620002B4603B0BDE8F04F00F05BB90098012203
:1006300040000023D0EB020263EBE07300982146F8
:100640004FEAE074B8EB000061EB0401E9E783F0E6
:1006500000435BE781F0004158E72DE9FE4F81EA56
:10066000030404F0004421F0004100944FF0000B1B
:1006700023F0004350EA01045ED052EA03045BD049
:10068000C3F30A54C1F30A552C44A4F2F334019481
:10069000A0FB0254C1F3130141F48011C3F313030F
:1006A00043F4801301FB024400FB034E840A970AC3
:1006B00044EA815447EA8357A4FB076802958D0AF0
:1006C00005FB07854FEA932C04FB0C542705029D7C
:1006D0004FEA065847EA1637B5EB08056EEB070CEC
:1006E000870E920E47EA811742EA8312A7FB0201A6
:1006F000B6EB0B0164EB00042B0D43EA0C335E18E0
:1007000044EB1C50DA465146E7FB0201C5F31304E3
:100710004FEA0B3343EA14534FEA0432019C43EA95
:100720000603A4F10C040294009CCDE900B400F08F
:10073000E7F803B0BDE8F08F00200146F9E72DE9A6
:10074000F04D81EA030404F0004B21F0004514460B
:100750004FF0000A23F0004150EA050220D054EA8D
:1007600001021DD0C5F30A570246C5F31303C1F3B6
:100770001300C1F30A5640F4801543F48013A7EB2D
:100780000608101BD64608F2FD3873EB050002D3AD
:1007900008F1010801E092185B41B8F1000F03DA9B
:1007A00000200146BDE8F08D00204FF48011064680
:1007B00084460EE0171B73EB050705D3121B63EB92
:1007C000050306434CEA010C49084FEA3000921831
:1007D0005B4150EA0107EDD152EA030012D082EAF0
:1007E000040083EA0501084305D0101BAB4106D283
:1007F0000122002306E000224FF0004302E06FF0E8
:10080000010253101AEB06004CEB085110EB0A00E2
:1008100041EB0B01BDE8F04D00F063B8C1F30A52A3
:10082000C1F3130140F2FF3341F480119A4202DA1E
:1008300000200146704740F233439A42A2F233420D
:1008400002DC5242FFF7BCBC00F02AB830B5041EEF
:1008500071F1000404DB4FF00044404264EB0101FD
:10086000141E73F1000405DB1C464FF00043524296
:1008700063EB0403994208BF904230BD064C074D1C
:1008800006E0E06840F0010394E807009847103460
:10089000AC42F6D3FFF72EFCF06C0008106D000898
:1008A000202A04DB203A00FA02F100207047914030
:1008B000C2F1200320FA03F3194390407047202A25
:1008C00006DBCB17203A41FA02F043EAE07306E078
:1008D00041FA02F3D040C2F1200291400843194688
:1008E000704710B5141E73F1000408DA401C41F182
:1008F000000192185B411A4301D120F0010010BDA4
:100900002DE9F04D92469B4611B1B1FA81F202E019
:10091000B0FA80F220329046FFF7C2FF04460F463D
:1009200040EA0A0041EA0B0153465A46084313D0F5
:10093000114653EA010019D0C8F140025046FFF7B2
:100940003FFC05460E46504659464246FFF7A8FF73
:10095000084305D0012004E020463946BDE8F08D6B
:100960000020054346EAE0762C4337430A986305A6
:10097000E40AA0EB08000022FD0A44EA47540A30CA
:1009800002D500200146E9E7010510196941DDE9BA
:10099000084500196941BDE8F04DA2E700BFFEE738
:1009A0008AB000F097F800BF6423002203A92D4805
:1009B000006803F02FFB00284FD12BA002F02EFE81
:1009C0009DF814000028EFD040F223100690042078
:1009D0008DF8240028490398FFF77EFC0546FFF7B1
:1009E000F0FC84B224490498FFF776FC0546FFF733
:1009F000E8FC1FFA80F920128DF81C008DF81D40CC
:100A00004FEA29218DF81E108DF81F900498FFF7EA
:100A1000ECFC05460E460398FFF7E7FC07463A460E
:100A20000B4616A0CDE9005602F0F8FD9DF81F0018
:100A300000909DF81E309DF81D209DF81C1018A0F8
:100A400002F0ECFD9DF8242007A9069800F03CF97F
:100A500010B11BA002F0E2FDA6E70A2003F084FA21
:100A6000A2E700001400002063616E206765742017
:100A70006F6B0D0A00000000000020415B54585DC0
:100A80002054656D703A20252E3166432C20487520
:100A90006D693A20252E31662525202D3E20000047
:100AA00043414E20446174613A202530325820255C
:100AB000303258202530325820253032580D0A0067
:100AC00043414E2053656E64204661696C65640D38
:100AD0000A00000000B58BB0154800F0B5FE18B153
:100AE00014A002F09BFD02E017A002F097FD002089
:100AF000069007900120089000200190029003903A
:100B000004900590012009900E200A9001A9084840
:100B100000F013FB18B113A002F080FD02E018A052
:100B200002F07CFD0221024800F04DFA0BB000BD3E
:100B3000AC00002043414E20537461727420466122
:100B4000696C65640D0A000043414E205374617264
:100B5000746564205375636365737366756C6C7933
:100B60000D0A000043414E2046696C7465722043B3
:100B70006F6E666967204661696C65640D0A0000E6
:100B800043414E2046696C74657220436F6E6669FE
:100B900067757265640D0A002DE9F14F8CB003ABE7
:100BA00005AA00210C9800F04EFB002859D12EA078
:100BB000099A059902F032FD002405E003A8015DC1
:100BC00032A002F02BFD641C0998A042F6D831A097
:100BD00002F024FD40F223110598884241D1099882
:100BE00004283ED19DF80D009DF80C1040EA012428
:100BF0009DF80F009DF80E1040EA01292046FFF7EE
:100C0000DBFB05462449FFF799FB82464846FFF780
:100C1000D3FB05462049FFF791FB83460A2094FB4E
:100C2000F0F502232A460121084602F0A7FA0A201D
:100C300099FBF0F502232A460121184602F09EFA9C
:100C40005846FFF7D2FB05460E465046FFF7CDFB50
:100C500007463A460B4611A0CDE9005602F0DEFCED
:100C600000BF0DB0BDE8F08F5B52585D2049443A9B
:100C7000203078253033582C20444C433A202564CA
:100C80002C20446174613A20000000002530325865
:100C9000200000000D0A00000000204120205061CB
:100CA0007273656420446174613A2054656D703DCF
:100CB000252E3166432C2048756D693D252E316601
:100CC00025250D0A0000000070B588B004460D46C9
:100CD00016460294002003900590049006968DF825
:100CE0001C0001AB2A4602A9024800F081F908B0B5
:100CF00070BD0000AC00002086B000F08BF8002032
:100D000003900490059000BF00200290019000F035
:100D100083FF00F5FA7407E000F07EFFA04200D9DF
:100D200008E00A2003F020F901A902A800F0EDF87C
:100D30000028F1D100BF9DF8080010B99DF804000B
:100D400068B19DF80800FFF737FB03909DF8040099
:100D5000FFF732FB049001208DF8140002E0002020
:100D60008DF8140000231A4603A90848006803F010
:100D7000DFF900231A4603A90548006803F0D8F9F3
:100D80004FF4FA6003F0F0F8BEE700001000002016
:100D90001400002010B5002400F028F804E0601CC6
:100DA000C4B2012000F0F6F820210F4800F026FF21
:100DB00008B1642CF3DB642C01DB012010BD00249E
:100DC00004E0601CC4B2012000F0E4F820210648D1
:100DD00000F014FF08B9642CF3DB642C01DB012064
:100DE000ECE70020EAE70000000801401FB5002002
:100DF000009001900290039020200090002001902C
:100E00000290032003906946014800F067FD1FBD72
:100E10000008014000B585B000BF1248806940F06D
:100E20000400104988610846806900F004000090C1
:100E300000BF00BF202001900120029000200390FD
:100E40000320049001A9084800F048FD0122202158
:100E5000054800F0DBFE00F085F8FFF79BFF05B0CA
:100E600000BD000000100240000801401FB5002036
:100E700000900190029003902020009001200190AA
:100E80000290032003906946014800F027FD1FBD32
:100E90000008014010B5002404E0601CC4B2012029
:100EA00000F078F82021104800F0A8FE08B1642C6A
:100EB000F3DB002404E0601CC4B2012000F06AF8F7
:100EC0002021094800F09AFE08B9642CF3DB2820A1
:100ED00000F060F82021044800F090FE08B10120E5
:100EE00010BD0020FCE700000008014070B50024A0
:100EF000002506E06006040EFFF7CCFF0443681CE3
:100F0000C5B2082DF6DB204670BD7CB505460E4601
:100F100000F028F8FFF73EFFF8B9002405E0FFF7DE
:100F2000E5FF0DF80400601CC4B2052CF7DB9DF84A
:100F300000009DF8011008449DF8021008449DF837
:100F4000031008449DF80410884208D19DF8000061
:100F500030709DF80200287001E001207CBD002067
:100F6000FCE7000010B5FFF781FF002220210748B1
:100F700000F04CFE142000F09DFC012220210348CB
:100F800000F044FE1E2000F005F810BD00080140EE
:100F90007047000010B504460020084909684862FF
:100FA000064801F053FB00BF04480068406AA042B5
:100FB000FAD3024801F0BCFB10BD0000D4000020B1
:100FC00072B600BFFEE710B5024692F82030012B42
:100FD00001D0022B06D11068406908431468606193
:100FE000002010BD506A40F4802050620120F8E7D4
:100FF000F0B504460D461E4694F8207020688368BC
:10100000A86800B900E000BF012F01D0022F7DD1F8
:1010100003F0806030B903F0006018B903F080502D
:1010200000287ED0C3F30161012088403060A868A9
:1010300060B9B5F800C0E86840EA4C5C206800F58B
:10104000C07000EB0110C0F800C00FE0D5E901C08E
:1010500040EACC00D5F80CC040EA0C00D4F800C03F
:101060000CF5C07C0CEB011CCCF80000D5F810C0CE
:10107000206800F5C07000EB0110C0F804C0287DA6
:1010800001280ED1206800F5C07000EB0110406807
:1010900040F4807C206800F5C07000EB0110C0F8BF
:1010A00004C0D079000692F806C040EA0C4092F8DD
:1010B00005C040EA0C2092F804C040EA0C00D4F8C5
:1010C00000C00CF5C07C0CEB011CCCF80C00D078F7
:1010D000000692F802C040EA0C4092F801C040EAD3
:1010E0000C2092F800C040EA0C00D4F800C00CF5C7
:1010F000C07C0CEB011CCCF80800206800F5C07027
:1011000000EB0110006840F0010C01E00FE008E086
:10111000206800F5C07000EB0110C0F800C000208E
:10112000F0BD606A40F4001060620120F8E7606A78
:1011300040F4802060620120F2E7F0B504460A46E0
:10114000216894F82050012D01D0022D74D1D1F8DE
:10115000000240F00100C1F80002107D00F01F06FF
:10116000012000FA06F3D1F81C029843C1F81C02D2
:10117000D069C8B9D1F80C029843C1F80C02908824
:1011800080B2968940EA064601F51070576940F82A
:101190003760108880B2168940EA064601F5107063
:1011A000576900EBC7004660D069012819D1D1F812
:1011B0000C021843C1F80C02908880B2168840EAED
:1011C000064601F51070576940F83760908980B283
:1011D000168940EA064601F51070576900EBC70012
:1011E0004660906928B9D1F804029843C1F8040216
:1011F00004E0D1F804021843C1F80402106928B9C8
:10120000D1F814029843C1F8140204E0D1F8140292
:101210001843C1F81402106A012804D1D1F81C0245
:101220001843C1F81C02D1F8000220F00100C1F8F7
:1012300000020020F0BDFFE7606A40F48020606299
:101240000120F7E7704770B5044694F82050012D4F
:1012500001D0022D7DD151B92068C06800F0030093
:1012600080B9606A40F400106062012070BD20689F
:10127000006900F0030028B9606A40F40010606261
:101280000120F3E7206800F5D87000EB011000683A
:1012900000F004009060906840B9206800F5D870B4
:1012A00000EB01100068400D106007E0206800F5B9
:1012B000D87000EB01100068C0085060206800F58D
:1012C000D87000EB0110006800F00200D0602068C8
:1012D00000F5D87000EB0110406800F00F000828FE
:1012E00002D30820106108E0206800F5D87000EBF8
:1012F0000110406800F00F001061206800F5D87000
:1013000000EB0110406800F47F40000A9061206803
:1013100000F5D87000EB01104068000C50612068A7
:1013200000F5D87000EB011080681870206800F597
:10133000D87000EB0110806800F47F40000A5870FC
:10134000206800F5D87000EB0110806800F47F0081
:1013500000E03CE0000C9870206800F5D87000EBCD
:1013600001108068000ED870206800F5D87000EB7E
:101370000110C0681871206800F5D87000EB0110EA
:10138000C06800F47F40000A5871206800F5D870EA
:1013900000EB0110C06800F47F00000C9871206819
:1013A00000F5D87000EB0110C068000ED87131B99B
:1013B0002068C06840F020002668F06005E02068E2
:1013C000006940F020002668306100204EE7606A26
:1013D00040F480206062012048E72DE9F05F044678
:1013E0000025206846692068D0F804902068876846
:1013F0002068D0F80CA02068D0F810B02068D0F891
:10140000188006F00100002855D007F00100C0B197
:1014100001202168886007F0020018B1204600F022
:1014200043FA0EE007F0040010B145F4006508E04F
:1014300007F0080010B145F4805502E0204600F0A6
:1014400032FA07F48070C8B14FF480702168886068
:1014500007F4007018B1204600F028FA0EE007F4F7
:10146000806010B145F4005508E007F4006010B149
:1014700045F4804502E0204600F017FA07F480307A
:10148000C8B14FF480302168886007F4003018B18B
:10149000204600F00DFA0EE007F4802010B145F46C
:1014A000004508E007F4002010B145F4803502E063
:1014B000204600F0FCF906F0080038B10AF01000F0
:1014C00020B145F4007510202168C86006F00400C2
:1014D00040B10AF0080028B108202168C860204601
:1014E00000F0A8F906F0020038B12068C06800F0EA
:1014F000030010B1204600F09EF906F0400038B11C
:101500000BF0100020B145F48065102021680861BF
:1015100006F0200040B10BF0080028B10820216837
:101520000861204600F08DF906F0100038B12068FF
:10153000006900F0030010B1204600F083F906F4C2
:10154000003040B109F0100028B110202168486037
:10155000204600F078F906F4803040B109F0080028
:1015600028B1082021684860204600F0A2F906F45E
:10157000004088B309F0040078B306F4807020B10D
:1015800008F0010008B145F0010506F4007020B133
:1015900008F0020008B145F0020506F4806020B1B1
:1015A00008F0040008B145F0040506F40060A0B19D
:1015B00008F0700088B108F07000402817D006DCF1
:1015C00010280BD020280CD0302819D10CE050283E
:1015D00010D0602814D110E01DE019E045F0080596
:1015E0000FE045F010050CE045F0200509E045F05E
:1015F000400506E045F0800503E045F4807500E015
:1016000000BF00BF2068806920F0700021688861F9
:101610000420216848602DB1606A2843606220463A
:10162000FFF710FEBDE8F09F70B504460CB901202D
:1016300070BD94F8200010B9204600F0AFF8206883
:10164000006840F001002168086000F0E5FA0546F6
:101650000DE000F0E1FA401B0A2808D9606A40F466
:1016600000306062052084F820000120E0E7206857
:10167000406800F001000028EBD02068006820F0EE
:1016800002002168086000F0C7FA05460DE000F08E
:10169000C3FA401B0A2808D9606A40F4003060622F
:1016A000052084F820000120C2E72068406800F08F
:1016B00002000028EBD1207E012806D120680068B6
:1016C00040F080002168086005E02068006820F094
:1016D000800021680860607E012806D120680068CB
:1016E00040F040002168086005E02068006820F0B4
:1016F000400021680860A07E012806D120680068AB
:1017000040F020002168086005E02068006820F0B3
:10171000200021680860E07E012806D1206800686A
:1017200020F010002168086005E02068006840F0A3
:10173000100021680860207F012806D12068006819
:1017400040F008002168086005E02068006820F08B
:10175000080021680860607F012806D120680068C1
:1017600040F004002168086005E02068006820F06F
:10177000040021680860D4E9020108432169084394
:10178000616908436168491E08432168C8610020F7
:101790006062012084F82000002049E710B586B07F
:1017A0000446002002900390049005901E49206892
:1017B000884236D100BF1D48C06940F000701B4907
:1017C000C8610846C06900F00070019000BF00BF0A
:1017D00000BF0846806940F00400886108468069BF
:1017E00000F00400019000BF00BFC8140290002068
:1017F0000390049002A90E4800F070F84FF4805056
:101800000290022003900320059002A9084800F0EE
:1018100065F800220521142000F0BEFA142000F023
:10182000ABFA06B010BD000000640040001002409A
:1018300000080140704710B504462046FFF7ACF998
:1018400010BD70477047704770B5044694F820008B
:10185000012822D1022084F820002068006820F0AE
:1018600001002168086000F0D7F905460DE000F09E
:10187000D3F9401B0A2808D9606A40F4003060623E
:10188000052084F82000012070BD2068406800F029
:1018900001000028EBD16062F6E7606A40F40020A6
:1018A00060620120F0E770477047704770477047EB
:1018B0007047704770B5044600F0AEF906462546FD
:1018C000681C10B104480078054400BF00F0A4F97A
:1018D000801BA842FAD370BD200000202DE9F847F4
:1018E0000346002294466EE14FF0010808FA02F424
:1018F000D1F8008008EA0400A0427DD1DFF8DCA224
:10190000D1F80480A8EB0A09D0453AD014DCB8F12C
:10191000030F50D009DCB8F1000F31D0B8F1010F3E
:101920001CD0B8F1020F49D120E0B8F1110F18D046
:10193000B8F1120F42D11EE0B9F5881F25D006DCA0
:10194000B9F5803F20D0B9F5801F37D11AE0B9F53D
:10195000001F18D0B9F5041F30D117E0D1F80CC022
:101960002DE0D1F80C8008F1040C28E0D1F80C80AF
:1019700008F1080C23E0D1F80C8008F10C0C1EE0F3
:1019800000BF00BF00BF00BF00BF00BFD1F808808C
:10199000B8F1000F02D14FF0040C0BE0D1F8088031
:1019A000B8F1010F03D14FF0080C1C6102E04FF0B9
:1019B000080C5C6103E04FF0000C00E000BF00BFCA
:1019C000FF2801D8984601E003F104084646FF28A5
:1019D00002D84FEA820803E0A2F108084FEA88081B
:1019E0004746D6F800804FF00F0909FA07F928EAB0
:1019F00009080CFA07F900E088E048EA0908C6F887
:101A00000080D1F8048008F08058B8F1805F7DD163
:101A100000BFDFF8CC81D8F8188048F00108DFF863
:101A2000C091C9F81880C846D8F8188008F0010895
:101A3000CDF8008000BF00BF4FEAB9384FEA9209E5
:101A400058F829504FEA82784FEA18794FF00F087A
:101A500008FA09F825EA0805DFF88881434502D12C
:101A60004FF0000816E0DFF88081434502D14FF0C7
:101A700001080FE0DFF87481434502D14FF00208FE
:101A800008E0DFF86C81434502D14FF0030801E024
:101A90004FF004084FEA82794FEA197908FA09F8F9
:101AA00048EA0505DFF84C814FEA920948F82950C9
:101AB000D1F8048008F48018B8F5801F0AD1DFF847
:101AC0003881D8F8008048EA0008DFF82C91C9F87E
:101AD000008009E0DFF82081D8F8008028EA0008BB
:101AE000DFF81491C9F80080D1F8048008F40018D8
:101AF000B8F5001F10D1DFF8008108F10408D8F80C
:101B0000008048EA0008DFF8F09000E05AE009F1B0
:101B10000409C9F800800DE0DFF8DC8008F1040852
:101B2000D8F8008028EA0008DFF8CC9009F1040911
:101B3000C9F80080D1F8048008F40038B8F5003FF7
:101B40000ED1DFF8B480A8F10408D8F8008048EA84
:101B50000008DFF8A490A9F10409C9F800800DE09D
:101B6000DFF89480A8F10408D8F8008028EA00087B
:101B7000DFF88490A9F10409C9F80080D1F8048045
:101B800008F48038B8F5803F0ED1DFF86C80A8F1FA
:101B90000808D8F8008048EA0008DFF85C90A9F14E
:101BA0000809C9F800800DE0DFF84C80A8F10808AA
:101BB000D8F8008028EA0008DFF83C90A9F108096D
:101BC000C9F80080521CD1F8008028FA02F8B8F158
:101BD000000F7FF489AEBDE8F88700000000111007
:101BE0000010024000080140000C014000100140BC
:101BF00000140140080001400804014002469368B7
:101C00000B400BB1012000E0002070470AB10161D8
:101C100001E00B0403617047014800687047000051
:101C20001800002003480068034909780844014966
:101C300008607047180000202000002010B50848F8
:101C4000006840F0100006490860032000F0E2F848
:101C50000F2000F007F800F05FF8002010BD000032
:101C6000002002402DE9F04188B004460027B84624
:101C7000002600BF2348C06940F004002149C86124
:101C80000846C06900F00400019000BF00BF02A92F
:101C900003A800F099F9069F1FB900F0BDF90546A9
:101CA00002E000F0B9F945001748B5FBF0F0A0F1EB
:101CB000010816481649086040F2E7311448C1602F
:101CC000C0F80480002101618160816100F072FC34
:101CD000064696B90E4800F0EFFC06466EB91E2087
:101CE00000F04AF8102C07D2002221461E2000F0F6
:101CF00053F80848046000E00126304608B0BDE80B
:101D0000F08100000010024040420F000008004037
:101D1000640100201C00002008B500BF1448806941
:101D200040F00100124988610846806900F0010016
:101D3000009000BF00BF00BF0846C06940F080505F
:101D4000C8610846C06900F08050009000BF00BF25
:101D500000220F21901E00F01FF800BF05494868BF
:101D600020F0E06040F00070486000BF08BD000057
:101D7000001002400000014001460846002809DB2F
:101D800000F01F0301229A4043099B0003F1E02366
:101D9000C3F8002100BF70472DE9F05F80460D4673
:101DA0001646002701F04AFC074639462A463346C4
:101DB00001F00700C0F1070ABAF1040F02D94FF091
:101DC000040A01E0C0F1070AD14600F1040ABAF1A1
:101DD000070F02D24FF0000A01E0A0F1030AD44637
:101DE0004FF0010A0AFA09FAAAF1010A0AEA020AFC
:101DF0000AFA0CFA4FF0010B0BFA0CFBABF1010BDA
:101E00000BEA030B4AEA0B042146404601F01EFC94
:101E1000BDE8F09F00BF00F00702064B19684FF6BF
:101E2000FF031940044B0B4343EA0221014B1960A5
:101E300000BF70470CED00E00000FA0570B50446E5
:101E40000D460CB9012070BD5A48006800F007002B
:101E5000A8420ED25748006820F007002843554991
:101E600008600846006800F00700A84201D0012081
:101E7000E9E7207800F0020002281DD1207800F068
:101E80000400042805D14C48406840F4E0604A4909
:101E90004860207800F00800082805D146484068CE
:101EA00040F46050444948604348406820F0F000E6
:101EB000A168084340494860207800F0010078B3E9
:101EC0006068012806D13C48006800F4003090B9F1
:101ED0000120B8E76068022806D13748006800F0A2
:101EE000007040B90120AEE73348006800F00200FE
:101EF00008B90120A7E73048406820F00300616876
:101F000008432D494860FFF787FE064609E0FFF7C2
:101F100083FE801B41F28831884202D9032092E778
:101F200007E02548406800F00C006168B0EB810FC5
:101F3000EDD12048006800F00700A8420ED91D48E6
:101F4000006820F0070028431A4908600846006826
:101F500000F00700A84201D0012074E7207800F0CB
:101F60000400042807D11448406820F4E060E168C8
:101F7000084311494860207800F00800082808D17B
:101F80000D48406820F46050216940EAC1000A49C8
:101F9000486000F061F808494968C1F30311074A35
:101FA000515CC8400649086006480068FFF75AFEC1
:101FB000002048E70020024000100240926C000818
:101FC000240000201C0000200F2202600D4A5268ED
:101FD00002F0030242600B4A526802F0F002826093
:101FE000084A526802F4E062C260064A526802F48B
:101FF0006052D2080261044A126802F007020A60C5
:1020000070470000001002400020024001480068B4
:10201000704700002400002000B5FFF7F7FF0449D7
:102020004968C1F30221034A515CC84000BD000069
:1020300000100240A26C000800B5FFF7E7FF04495A
:102040004968C1F3C221034A515CC84000BD000089
:1020500000100240A26C000870B50021002200248C
:1020600000230020134D696801F00C05F5B1042D23
:1020700002D0082D19D101E00F4819E00F4DC1F32E
:102080008346AB5D01F4803555B10A4D6D68C5F3EB
:1020900040450B4E725D084D5D43B5FBF2F402E026
:1020A000084D03FB05F4204602E000BF024800BFD4
:1020B00000BF70BD0010024000127A00806C000862
:1020C000906C000800093D00F8B504460CB90120E9
:1020D000F8BD207800F00100002878D0F84840686A
:1020E00000F00C0004280CD0F548406800F00C000B
:1020F000082811D1F248406800F48030B0F5803FE4
:102100000AD1EF48006800F4003000285FD0606812
:1021100000285CD10120DBE700BF6068B0F5803F9C
:1021200006D1E748006840F48030E549086028E0BF
:10213000606858B9E248006820F48030E0490860DF
:102140000846006820F4802008601AE06068B0F556
:10215000A02F0BD1DA48006840F48020D8490860ED
:102160000846006840F4803008600AE0D4480068FF
:1021700020F48030D24908600846006820F48020AE
:10218000086000BF606888B1FFF746FD054606E0BD
:10219000FFF742FD401B642801D9032098E7C84897
:1021A000006800F400300028F2D010E0FFF734FDA2
:1021B000054606E0FFF730FD401B642801D90320E7
:1021C00086E7BF48006800F400300028F2D120788C
:1021D00000F00200022857D1B948406800F00C0016
:1021E00050B1B748406800F00C00082818D1B44836
:1021F000406800F4803098B9B148006800F00200EF
:1022000020B12069012801D0012061E7AC480068B5
:1022100020F0F800616940EAC100A949086033E094
:102220002069E8B10120A7490860FFF7F5FC0546E1
:1022300006E0FFF7F1FC401B022801D9032047E725
:102240009F48006800F002000028F2D09C48006817
:1022500020F0F800616940EAC1009949086013E084
:10226000002098490860FFF7D7FC054606E0FFF715
:10227000D3FC401B022801D9032029E790480068BD
:1022800000F002000028F2D1207800F008000828B1
:102290002DD1A069B8B101208B490860FFF7BCFCC3
:1022A000054606E0FFF7B8FC401B022801D90320D1
:1022B0000EE78348406A00F002000028F2D00120B7
:1022C00000F0CAFF13E000207F490860FFF7A4FC7C
:1022D000054606E0FFF7A0FC401B022801D90320B9
:1022E000F6E67748406A00F002000028F2D1207834
:1022F00000F00400042873D100277148C06900F081
:10230000805070B900BF6E48C06940F080506C4981
:10231000C8610846C06900F08050009000BF00BF4F
:1023200001276A48006800F48070B0B96748006807
:1023300040F4807065490860FFF76EFC054606E0D2
:10234000FFF76AFC401B642801D90320C0E65F4800
:10235000006800F480700028F2D000BFE068012817
:1023600006D15748006A40F001005549086227E04D
:10237000E06858B95248006A20F0010050490862EC
:102380000846006A20F00400086219E0E0680528A9
:102390000BD14B48006A40F00400494908620846E6
:1023A000006A40F0010008620AE04548006A20F037
:1023B0000100434908620846006A20F004000862F0
:1023C00000BFE068A0B1FFF727FC054609E0FFF772
:1023D00023FC401B41F28831884202D9032077E672
:1023E00022E03748006A00F002000028EFD012E037
:1023F000FFF712FC054608E0FFF70EFC401B41F218
:102400008831884201D9032062E62D48006A00F035
:1024100002000028F0D1012F05D12948C06920F021
:1024200080502749C86100BFE069C8B324484068AC
:1024300000F00C00082860D0E069022848D1002094
:1024400020490866FFF7E8FB054606E0FFF7E4FBD6
:10245000401B022801D903203AE61948006800F021
:1024600000700028F2D1206AB0F5803F07D11448EF
:10247000406820F40030A168084311494860D4E95D
:10248000080108430E49496821F4741108430C49B6
:10249000486001200B490866FFF7BEFB054607E0D0
:1024A0003DE0FFF7B9FB401B022801D903200FE6EE
:1024B0000348006800F000700028F2D02FE0000010
:1024C000001002400000424280044242007000407E
:1024D000002014490866FFF79FFB054606E0FFF75A
:1024E0009BFB401B022801D90320F1E50E48006840
:1024F00000F000700028F2D111E0E069012800D15D
:10250000E6E50948466806F48031206A814204D134
:1025100006F47011606A814201D00120D8E50020E4
:10252000D6E50000000042420010024070477047AC
:1025300030B502460B4600BF92F83C00012801D19D
:10254000022030BD012082F83C0000BF022082F84A
:102550003D00106844681068816824F070041868B1
:10256000044310684460104D1068A8420BD01068F6
:10257000B0F1804F07D00D4D1068A84203D00C4D2C
:102580001068A84205D121F0800158680143106805
:102590008160012082F83D0000BF002082F83C00ED
:1025A00000BF00BFCDE70000002C01400004004048
:1025B0000008004010B504460CB9012010BD94F885
:1025C0003D0028B9002084F83C00204600F026F8A1
:1025D000022084F83D00211D206800F09DFE0120AE
:1025E00084F8460000BF84F83E0001213F200155D9
:1025F000402001554120015500BF00BF012084F853
:10260000420043200155442001554520015500BF9B
:10261000012084F83D000020D0E7000008B5094AF9
:10262000016891420DD100BF0749C96941F002011B
:10263000054AD1611146C96901F00201009100BF4C
:1026400000BF08BD0004004000100240014691F8A0
:102650003D00012801D001207047022081F83D0093
:10266000124B086898420BD00868B0F1804F07D031
:102670000F4B0868984203D00E4B086898420CD163
:102680000868806800F00702062A0CD00868006815
:1026900040F001000B68186005E00868006840F031
:1026A00001000B6818600020D6E70000002C0140F4
:1026B0000004004000080040014691F83D00012858
:1026C00001D001207047022081F83D000868C068F1
:1026D00040F001000B68D860124B086898420BD09C
:1026E0000868B0F1804F07D00F4B0868984203D0BC
:1026F0000E4B086898420CD10868806800F0070209
:10270000062A0CD00868006840F001000B681860C9
:1027100005E00868006840F001000B6818600020C0
:10272000D0E70000002C01400004004000080040F9
:10273000014600BF0868006A41F21112104050B90A
:102740000868006A9210104028B90868006820F0F4
:1027500001000A68106000BF012081F83D000020E0
:1027600070472DE9F04104460D46002700BF94F85C
:102770003C00012802D10220BDE8F081012084F84C
:102780003C0000BF022084F83D002068866826F0E7
:10279000770626F47F46206886602868502833D064
:1027A0000CDC202850D004DC00284BD0102851D15C
:1027B00049E0302849D040284CD139E060282DD05C
:1027C000702807D0B0F5805F03D0B0F5005F41D12D
:1027D0000DE041E0D5E902136A68206800F0DEFDF3
:1027E0002068866846F077062068866034E0D5E980
:1027F00002136A68206800F0D1FD2068806840F408
:1028000080402168886027E0EA686968206800F0F5
:10281000D9FD5021206800F0CCFD1DE0EA68696810
:10282000206800F0E2FD6021206800F0C2FD13E0A6
:10283000EA686968206800F0C5FD4021206800F062
:10284000B8FD09E000BF00BF00BF2968206800F0A4
:10285000B0FD01E0012700BF00BF012084F83D006A
:1028600000BF002084F83C0000BF384684E7704772
:1028700070B504462068C5682068066906F0020045
:10288000022819D105F00200022815D1401F216845
:102890000861012020772068806900F0030018B1EA
:1028A0002046FFF7E4FF05E0204600F097F82046B9
:1028B00000F095F80020207706F00400042819D1D4
:1028C00005F00400042815D1C043216808610220E6
:1028D00020772068806900F4407018B12046FFF727
:1028E000C6FF05E0204600F079F8204600F077F8B2
:1028F0000020207706F00800082819D105F008000C
:10290000082815D1C0432168086104202077206879
:10291000C06900F0030018B12046FFF7A8FF05E0EA
:10292000204600F05BF8204600F059F800202077A0
:1029300006F01000102819D105F01000102815D14C
:10294000C04321680861082020772068C06900F42E
:10295000407018B12046FFF78AFF05E0204600F0DE
:102960003DF8204600F03BF80020207706F00100FB
:1029700048B105F0010030B16FF001002168086135
:10298000204600F02DF806F08000802809D105F0DF
:102990008000802805D1C043216808612046FFF7E8
:1029A000C5FD06F04000402809D105F04000402850
:1029B00005D1C04321680861204600F01DF806F0EB
:1029C0002000202809D105F02000202805D1C0438F
:1029D000216808612046FFF7AAFD70BD7047704767
:1029E00010B5044603492068884201D1FFF71AF95F
:1029F00010BD000000080040704710B504460CB937
:102A0000012010BDA06900B100E000BF94F84100B2
:102A100028B9002084F84000204600F029F824203E
:102A200084F841002068C06820F400502168C86024
:102A3000204600F025FD2068006920F490402168C0
:102A400008612068406920F02A00216848612068F8
:102A5000C06840F400502168C860002060642020F5
:102A600084F8410084F842000020606300BFC8E79A
:102A700010B586B0044600200290039004900590A3
:102A80001A49206888422ED100BF1948806940F455
:102A90008040174988610846806900F480400190B1
:102AA00000BF00BF00BF0846806940F00400886195
:102AB0000846806900F00400019000BF00BF48157F
:102AC0000290022003900320059002A90948FEF716
:102AD00005FF4FF48060029000200390049002A94B
:102AE0000448FEF7FBFE06B010BD000000380140B0
:102AF00000100240000801402DE9F84F04460E4640
:102B0000174699464FF0000A94F84100202850D10A
:102B100006B117B90120BDE8F88F002060642120BC
:102B200084F84100FFF778F88246A784E784A0681C
:102B3000B0F5805F04D1206910B90025B04602E0ED
:102B400035464FF000081EE0534600228021204603
:102B5000CDF8009000F012FD20B1202084F8410053
:102B60000320D8E745B9B8F80000C0F30800216891
:102B7000486008F1020803E02878216848606D1C6D
:102B8000E08C401EE084E08C0028DDD1534600221A
:102B900040212046CDF8009000F0F0FC20B120202C
:102BA00084F841000320B6E7202084F8410000208B
:102BB000B1E70220AFE700BFFEE7000010B50D4807
:102BC0000D4908603020486000210B488160C160D9
:102BD0004FF4803101614901416100210176417664
:102BE0008176C17601774177FEF71EFD08B1FEF7C9
:102BF000E7F910BD00640040AC00002010B5154A94
:102C00000C21022001F046FA13490860134A0C21F6
:102C1000052001F03FFA12490860124A00211248CB
:102C200001F0C8FA11490860114A0021114801F069
:102C3000C1FA11490860114A0021114801F0BAFA9D
:102C400010490860104A0021104801F0B3FA1049F9
:102C5000086010BD206200081000002038620008E3
:102C6000140000209061000881320008000000205C
:102C7000B4610008252E000804000020D861000877
:102C8000F90C000808000020FC610008A1090008F8
:102C90000C00002000B585B0002001900290039048
:102CA000049000BF3148806940F020002F498861BE
:102CB0000846806900F02000009000BF00BF00BF00
:102CC0000846806940F0040088610846806900F089
:102CD0000400009000BF00BF00BF0846806940F0BC
:102CE000080088610846806900F00800009000BF75
:102CF00000BF002220211E48FEF788FF00224FF46B
:102D000040711C48FEF782FF0120019000200290D4
:102D10000120039001A91648FEF7E0FD2020019054
:102D200001200290002003900220049001A9104885
:102D3000FEF7D4FD4FF48070019011200290002026
:102D400003900220049001A90A48FEF7C7FD4FF442
:102D50000070019001200290002003900220049056
:102D600001A90448FEF7BAFD05B000BD00100240FD
:102D700000080140000C014000B587B0002003901E
:102D80000490059006900190029014481449086040
:102D9000472048600021124881604FF6FF71C160F2
:102DA000002101618161FFF705FC08B1FEF708F918
:102DB0004FF48050039003A90948FFF7D2FC08B1F3
:102DC000FEF7FEF800200190029001A90448FFF7E9
:102DD000AFFB08B1FEF7F4F807B000BD00040040F7
:102DE000D400002010B50B480B4908604FF4E130C7
:102DF0004860002108488160C16001610C21416187
:102E000000218161C161FFF7F8FD08B1FEF7D8F834
:102E100010BD0000003801401C01002000BFFEE78B
:102E200000BFFEE70EB500F0FCF800BF40F2D17322
:102E3000002269463B48006801F0ECF800286BD19D
:102E40009DF8081038A000F0E9FB9DF80800002864
:102E50005CD00098FDF7B5FA84B22046FDF7ACFAD5
:102E600082460099FDF735FA81463449FDF734FA78
:102E70008046FDF7A6FA86B20198FDF7A2FA85B260
:102E80002846FDF799FA82460199FDF722FA814614
:102E90002A49FDF721FA8046FDF793FA87B228A266
:102EA0000121042000F08CF9022322460421084667
:102EB00000F064F923A20621042000F081F9012327
:102EC00032460721042000F059F91FA208210420EE
:102ED00000F076F91DA20921042000F071F9022307
:102EE0002A460C21042000F049F916A20E210420E4
:102EF00000F066F901233A460F21042000F03EF964
:102F000013A21021042000F05BF98FE711A2012128
:102F1000042000F055F989E79DF808100FA000F093
:102F20007DFB83E7100000206F6C6564206765748B
:102F3000206F6B202025640D0A0000000000204156
:102F400054503A002E0000004300000048493A0067
:102F5000250000004E6F2044617461006F6C656451
:102F600020676574206572726F72202025640D0AD7
:102F70000000000070B500240EE00021204600F0A3
:102F8000B1F8002504E0002000F056F9681CC5B235
:102F9000802DF8DB601CC4B2082CEEDB70BD10B5D0
:102FA000FFF778FE012000F01FF9012000F028F95A
:102FB00010BD70B50546002411E080212141294053
:102FC00009B1012100E00021084600F019F90120B3
:102FD00000F00AF9002000F007F9601CC4B2082CC8
:102FE000EBDB012000F000F9002000F0FDF870BDDF
:102FF00010B5012000F004F9012000F0F5F80020E0
:1030000000F0FEF8002000F0EFF810BD10B5002031
:1030100000F0F6F8012000F0E7F8012000F0F0F8E9
:1030200010BD70B5002406E0002500E06D1CB5F56C
:103030007A7FFBD3641CB4F57A7FF5D3FFF7AFFF3B
:10304000AE2000F0E9F8D52000F0E6F8802000F08E
:10305000E3F8A82000F0E0F83F2000F0DDF8D320EE
:1030600000F0DAF8002000F0D7F8402000F0D4F8A3
:10307000A12000F0D1F8C82000F0CEF8DA2000F04E
:10308000CBF8122000F0C8F8812000F0C5F8CF205E
:1030900000F0C2F8D92000F0BFF8F12000F0BCF831
:1030A000DB2000F0B9F8302000F0B6F8A42000F0E2
:1030B000B3F8A62000F0B0F88D2000F0ADF8142091
:1030C00000F0AAF8AF2000F0A7F8FFF753FF70BD9B
:1030D00010B50246012000E050430B1EA1F1010192
:1030E000FAD110BD70B505460C4645F0B00000F0B1
:1030F00093F8102141EA141000F08EF804F00F004C
:1031000000F08AF870BD00002DE9F04105460E463A
:103110001746721ED206110E6A1E5206100EFFF7D7
:10312000E1FF002409E0A7F12001134A02EB01119D
:10313000085D00F081F8601CC4B2082CF3DB721E3D
:10314000D206110E6A1E012303EB4202D0B2FFF732
:10315000C9FF00240BE0A7F12001074A02EB01128E
:1031600004F10801505C00F067F8601CC4B2082C40
:10317000F1DBBDE8F0810000506200082DE9F04766
:1031800080460E4617461D46002415E0281B411EAA
:103190000A20FFF79DFFB7FBF0F00A21B0FBF1F228
:1031A00001FB120000F130093019C1B24A46404615
:1031B000FFF7AAFF601CC4B2AC42E7DBBDE8F087B2
:1031C0002DE9F04107460E461546002407E02A5D2A
:1031D0003019C1B23846FFF797FF601CC4B2285DB2
:1031E0000028F4D1BDE8F08110B5044622464FF422
:1031F00080710248FEF70AFD10BD0000000C01407E
:1032000010B5044622464FF400710248FEF7FEFC5A
:1032100010BD0000000C014010B50446FFF7E8FEA9
:103220007820FFF7C6FE0020FFF7C3FE2046FFF719
:10323000C0FEFFF7EBFE10BD10B50446FFF7D8FE49
:103240007820FFF7B6FE4020FFF7B3FE2046FFF7D9
:10325000B0FEFFF7DBFE10BD08B508490968C908D4
:103260004FF47A72B1FBF2F14143009100BF00BF0D
:1032700000994A1E00920029F9D108BD24000020BF
:1032800000BF012000F070FEFBE710B54FF0E0201A
:10329000006902F027FD012801D002F0DDF810BD21
:1032A00000B58FB0282105A8FCF7B3FF14216846AC
:1032B000FCF7AFFF01200590000406900020079066
:1032C0000120099002200C90C1030D914FF4E011F0
:1032D0000E9105A8FEF7F8FE08B1FDF771FE0F206C
:1032E000009002200190002002904FF48060039033
:1032F0000020049002216846FEF7A0FD08B1FDF70A
:103300005FFE0FB000BD704710B50248FFF7B0FA7E
:1033100010BD00006401002010B502681C4B9842EB
:1033200008D0B0F1804F05D01A4B984202D01A4B0A
:10333000984203D122F070024B681A43144B984212
:1033400008D0B0F1804F05D0124B984202D0124BFA
:10335000984203D122F44072CB681A4322F08003D2
:103360004C6943EA040202608B68C3620B688362A3
:10337000074B984201D10B69036301234361036941
:1033800003F001031BB1036923F00103036110BDC6
:10339000002C0140000400400008004030B50C46FD
:1033A000816821F47F4142EA032525432943816056
:1033B00030BD0A46816821F0700142F007031943CD
:1033C0008160704730B50B461446026A056A25F0E5
:1033D00001050562816921F0F00141EA041122F042
:1033E0000A021A438161026230BD30B50B461446B1
:1033F000026A056A25F010050562816921F47041B1
:1034000041EA043122F0A00242EA03128161026221
:1034100030BD00BF00BF02680C3252E8002F22F41A
:10342000907102680C3242E80013002BF3D100BF08
:1034300000BF00BF0268143252E8002F22F00101E1
:103440000268143242E80013002BF3D100BF016B75
:1034500001290ED100BF00BF02680C3252E8002FD4
:1034600022F0100102680C3242E80013002BF3D165
:1034700000BF202180F84210002101637047000046
:1034800070B504462168096921F44051E26811438E
:10349000226811612269A1681143626941EA02054B
:1034A0002168C96841F20C62914329432268D160C6
:1034B0002168496921F44071A26911432268516170
:1034C0002D4A2168914202D1FEF7B6FD01E0FEF7D8
:1034D000A3FD00EBC00101EB001162689200B1FB9B
:1034E000F2F100EBC00202EB001263689B00B2FB3A
:1034F000F3F26423B2FBF3F202EBC20303EB02121A
:10350000A1EB8201322202EB01116422B1FBF2F144
:1035100001F0F00100EBC00202EB001263689B00B7
:10352000B2FBF3F26423B2FBF3F201EB021200EB05
:10353000C00101EB001163689B00B1FBF3F100EBEC
:10354000C00303EB00136668B600B3FBF6F3642612
:10355000B3FBF6F303EBC30606EB0313A1EB830106
:10356000322303EB01116423B1FBF3F101F00F01EE
:1035700011442268916070BD003801402DE9F84384
:1035800004460D4617469846089E31E0701C70B3FD
:10359000FEF742FBA0EB0800B04200D816B90320AA
:1035A000BDE8F8832068C06800F00400F8B1802D01
:1035B0001ED0402D1CD020680068C0F3C000B0B100
:1035C00000BF0020009020680068009020684068DC
:1035D000009000BF00BF2046FFF71BFF082060647B
:1035E00000BF002084F8400000BF0120D8E7FFE7BB
:1035F000206800682840A84201D1012000E0002096
:10360000B842C3D00020CBE710B50248FDF7E5FE75
:1036100010BD0000AC00002000BFFEE70FB4054B5A
:1036200010B503A9044A029800F0F8F810BC5DF840
:1036300014FB0000253F0008A80000200248006895
:10364000C0F30220704700000CED00E010B5002828
:1036500004DB0A07130E054A135406E00A07140E8A
:10366000034A00F00F031B1FD45410BD00E400E018
:1036700018ED00E0EFF30580704702E008C8121F64
:1036800008C1002AFAD170477047002001E001C14B
:10369000121F002AFBD170472DE9FF5F82B0002185
:1036A000DDE90430020DDDF840B0034318D044F6E4
:1036B0001050A2F2FF3242431514119801281FD076
:1036C000A5EB0B00401C5FEA000A4FF000064E4FCE
:1036D000DFF83891B046504615D5CAF1000413E022
:1036E000119801244AA3012801D16FEA0B01029825
:1036F000119AC0E90031C0E9024206B0BDE8F09F6E
:10370000CBF10000DFE704460021404A491842EBB4
:103710000450CDE9001012E0E00707D032463B46E6
:1037200040464946FCF799FF8046894632463B466B
:1037300010461946FCF791FF06460F466410002C10
:10374000EAD1DDE90401DDE90023BAF1000F06DA70
:10375000FCF783FF42464B46FCF77FFF05E0FCF792
:10376000EEFF42464B46FCF7EAFF04460E460022B7
:10377000284BFDF76BF803D84FF0FF30014607E008
:103780000022254B20463146FCF7C0FEFDF746F8E7
:10379000102409E0002C0ADB0A220023FCF74EFE6D
:1037A000039B30321A55641E50EA0102F2D1641CA8
:1037B000039AC4F111031444119A012A03D001227F
:1037C00008430DD10AE0084304D000204FF0110B4C
:1037D000119072E7A3EB0B056D1E0DE05B4504DD58
:1037E0004FF0000205F1010504E003DA4FF000029A
:1037F000A5F10105002AECD002981199C0E9023127
:10380000C0E9004579E70000000014400000F03FE7
:10381000300000000000F0430000E03F2DE9FF4FC2
:1038200095B09A46884606460025EEE1252877D1D0
:1038300000242746F94A0121039400E0044316F8C6
:10384000013F203B01FA03F01042F7D130782A28DB
:1038500011D06FF02F033078A0F13002092A16D86A
:10386000039A44F0020402EB820203EB420210448A
:10387000761C0390EFE758F8042B0392002A03DA32
:10388000504244F40054039044F00204761C307813
:103890002E2816D116F8010F44F004042A280DD062
:1038A0006FF02F023078A0F13003092B09D807EB15
:1038B000870302EB4303C718761CF3E758F8047B31
:1038C000761C30786C280FD006DC4C2817D068287E
:1038D0000DD06A2814D104E0742810D07A280FD1B2
:1038E0000DE044F400140AE044F4801401E044F4D0
:1038F00040147278824202D104F58014761C761C42
:10390000307866280BD013DC582877D009DC0028E3
:1039100075D04528F6D04628F4D047281AD193E12F
:1039200018E0632835D0642879D0652812D18BE15E
:10393000702873D008DC6728F1D069286FD06E2812
:103940000DD06F2806D1ACE073282CD0752874D028
:10395000782853D05246179990476D1C54E1C4F310
:103960000250022809D003280DD0D8F800100428EE
:103970000DD00D6008F1040846E1D8F80010EA17F0
:10398000C1E90052F6E7D8F800100D80F2E70D709B
:10399000F0E718F8041B8DF8001000208DF80100E6
:1039A000EB46012003E058F804BB4FF0FF306107FD
:1039B0004FF0000102D40DE009F101018946B9423E
:1039C0000FDA8145F8DB1BF809100029F4D108E073
:1039D00009F1010189468142FADB1BF8091000292F
:1039E000F6D103985346A0EB090721463846179AAB
:1039F00000F080FA284400EB090507E044E008E104
:103A00000DE01BF8010B524617999047B9F10109D7
:103A1000F7D2534621463846179AF2E039E00A2198
:103A2000C4F302524FF0000B0091022A06D058F85E
:103A3000040BC117032A09D00AE023E008F10700AC
:103A400020F00702F2E80201904605E000B2C1173B
:103A5000042A01D140B2C117002906DA0A46002122
:103A6000404261EB02012D2202E0220504D52B2207
:103A70008DF80420012203E0E20701D02022F7E7BD
:103A8000914657E00A2100E010214FF0000B009111
:103A90000BE010214FF0000B44F0040408270091C4
:103AA00003E008204FF0000B0090C4F30252022AFA
:103AB00005D058F8040B0021032A08D008E008F1CB
:103AC000070020F00702F2E80201904603E080B20E
:103AD000042A00D1C0B24FF0000922072AD532785B
:103AE000702A07D0DDF800C08CF0100C5CEA0B0CDB
:103AF00005D00EE040228DF80420012208E050EAB3
:103B0000010306D030238DF804308DF80520022201
:103B10009146009B83F0080353EA0B030AD150EA55
:103B2000010201D1620705D530228DF804204FF043
:103B300001097F1E3278582A04D039A20C920CAAAF
:103B400002920BE03BA2F9E75B46009AFCF776FC99
:103B50000C9B9B5C029A521E0292137050EA010267
:103B6000F2D1029804A9081A00F1200B600702D5CF
:103B700024F4803400E001275F4502DDA7EB0B0051
:103B800000E0002000EB0B01009003984944401A2C
:103B90000390E00306D453462146179A039800F099
:103BA000A9F90544002706E001A85246C05D17990F
:103BB00090476D1C7F1C4F45F6DBE0030CD5534648
:103BC0002146179A039800F095F9054404E0302047
:103BD0005246179990476D1C0099481E0090002985
:103BE000F5DC08E00298029952460078491C0291DF
:103BF000179990476D1CBBF10001ABF1010BF1DC93
:103C00005BE100F065F90544761C307800287FF40C
:103C10000DAE19B02846BDE8F08F0000092801005C
:103C20003031323334353637383961626364656632
:103C300000000000303132333435363738394142F4
:103C40004344454600000000600700D4062708F101
:103C5000070020F00700F0E80223804603F0004C44
:103C60005FEA0C0001D097A009E0200501D596A0DD
:103C700005E0E00701D095A001E0AFF24C00139001
:103C8000307823F0004365280CD006DC452809D0A5
:103C900046281DD047287FD13BE0662818D06728EA
:103CA0007AD136E00021112F01DB112000E0781CD1
:103CB000CDE9000104A90CA8FFF7EEFCDDE90D0138
:103CC0000C9A4FF0000B07F10109109200914EE0A1
:103CD0004FF000400097CDE9011004A90CA8FFF7B0
:103CE000DBFCDDE90D020C9B0F994FF0000B9146B8
:103CF0001093009211B9791C00EB0109B7EB090090
:103D000003D4C0F1FF3B07F10109A9EB07000190C3
:103D100042E0012F00DA01270021112F01DD1120DF
:103D200000E03846CDE9000104A90CA8FFF7B4FC77
:103D3000DDE90D010C9A00914FF0000BB94610928D
:103D400021070FD4009A4A4503DA914601E0A9F110
:103D50000109B9F1010F05DD109AA9F10101515CCA
:103D60003029F4D0B84202DA10F1040F03DA01214D
:103D7000CDE9011010E0002803DC8344A9EB000129
:103D800002E0411C494500DD8946A0EB0B00401CC8
:103D900001904FF000400290200705D4019848455B
:103DA00002DB4FF0FF30019000208DF84B000298AD
:103DB0000DF14B07B0F1004F25D002200C902B20C5
:103DC0000D90029800280CDA404202902D200D90B0
:103DD00007E00A210298FCF71BFB3031029007F83C
:103DE000011D0C99481E0C900029F2DC0298002855
:103DF000EFD1791E0D980870307800F0200040F067
:103E0000450007F8020D11A8C01BC01D02901398B1
:103E1000007800B1012000EB0901019801EBE0718D
:103E2000029801440398401A401E0390E00306D410
:103E300053462146179A039800F05CF805441398FE
:103E4000007818B15246179990476D1CE00323D5AE
:103E500053462146179A039800F04CF805441BE09E
:103E6000BBF1000F07DB0098584504DD1098179947
:103E700010F80B0001E01799302052469047019846
:103E80000BF1010B401E05F10105019004D12E201C
:103E90005246179990476D1CB9F10001A9F101092B
:103EA000DEDC05E017F8010B5246179990476D1CB0
:103EB0000299481E02900029F4DC53462146179AC5
:103EC00003989EE62D0000002B000000200000005B
:103ED0002DE9F041044600251E461746880404D407
:103EE00005E039462020B0476D1C641EF9D52846F0
:103EF000BDE8F0812DE9F041044600251E469046BC
:103F0000C80301D5302700E02027880404D505E048
:103F100041463846B0476D1C641EF9D52846BDE8B9
:103F2000F081000013B50C464FF0FF3301226946C3
:103F30000248FEF7E1FD00981CBD00001C010020B6
:103F4000FDF77CFEFFF7ACF9FEF7A4FEFEF736FEA8
:103F5000FEF712FFFEF746FF00F016F8FEF74EFEE2
:103F600000F028F800BFFEE770B50546FFF782FBBA
:103F700010B16FF0050404E0002415B1284601F0EB
:103F8000C7F8204670BD000010B5FFF773FB10B1F5
:103F90006FF0050409E00648006820B901200449D3
:103FA0000860002401E04FF0FF34204610BD0000FF
:103FB0007800002070B5FFF75DFB10B16FF00504CD
:103FC0001FE011480068012819D100BF801F00219F
:103FD000002804DB0A07130E0C4A135406E00A07F4
:103FE000150E0B4A00F00F031B1FD55400BF00BF76
:103FF00002200549086001F007F9002401E04FF0B4
:10400000FF34204670BD00007800002000E400E08E
:1040100018ED00E02DE9F84307460D4691461C4691
:104020003E464FF00008FFF725FBE0B10EB105B1A9
:1040300014B16FF0030828E0002000906A4629467A
:10404000304601F013FD012802D06FF002081CE099
:104050000098D0B14FF080500D490860BFF34F8FEA
:10406000BFF36F8F11E006B115B96FF003080CE0D4
:1040700022462946304601F045FC012805D014B1FE
:104080006FF0010801E06FF002084046BDE8F883D8
:1040900004ED00E02DE9F84305460E4614464FF0C6
:1040A0000009FFF7E7FA00283ED1002D3CD0002E92
:1040B0003AD0471EBCB1A06858B1E068502808D378
:1040C000206930B105FB06F06169814201D3012707
:1040D0000AE0A06840B9E06830B9206920B9606999
:1040E00010B9002700E00027012F09D1002000901F
:1040F00031462846A368226901F0F5F9814606E0B9
:104100002FB900223146284601F0C0F98146B9F1A5
:10411000000F09D014B1D4F8008001E04FF000087E
:104120004146484600F0B8FF4846BDE8F883000025
:104130002DE9F84307460D4691461C463E464FF092
:104140000008FFF797FAE8B10EB105B114B16FF0AE
:1041500003082AE00020009000236A4629463046E2
:1041600001F052FB012802D06FF002081DE0009818
:10417000D8B14FF080500E490860BFF34F8FBFF3A6
:104180006F8F12E006B115B96FF003080DE0002340
:1041900022462946304601F063FA012805D014B1C1
:1041A0006FF0010801E06FF002084046BDE8F883B7
:1041B00004ED00E02DE9FF478046894614460020C3
:1041C0000390FFF757FA00284ED1B8F1000F4BD0FB
:1041D000802618258246471E44B3206808B1D4F8CB
:1041E00000A0A06900B1A5692DB1382D03D82079B0
:1041F00000F0010018B1002004B0BDE8F08760694C
:1042000008B160698608A06840B1E0685C2805D301
:10421000206918B1606908B1012708E0A06830B9C9
:10422000E06820B9206910B9002700E00027012FBD
:104230000CD12169A0684B463246CDE9005102906D
:104240005146404601F0F0FC03900DE067B903A829
:10425000B2B24B465146CDE90050404601F0B2FCA7
:10426000012801D0002003900398C5E72DE9F04113
:1042700005460E461648076816480068001D00F0FF
:10428000BFFD681C38B936B112480168091D1248D3
:1042900000F00CFE1AE07C190E4800684460BC4235
:1042A00007D20C480168091D0C48006800F0E4FDC5
:1042B0000CE008480168091D0948006800F0DCFDB1
:1042C00008480068844201D206480460BDE8F081D5
:1042D0003C000020280000209C0600203000002028
:1042E0002C0000205800002010B5044600F0EAFD24
:1042F00024480068401C234908602348006840B9EE
:10430000214804600846006801280DD100F0FCF93E
:104310000AE01E48006838B91B480068C06AE16AB4
:10432000884201D81848046019480068401C1849A0
:1043300008600846006860641649E06A09688842B7
:1043400002D91449E06A0860E16A01EB8101124A6E
:1043500002EB8100211D00F0A9FD00F0DDFD0B48FE
:10436000006868B108480068C06AE16A884207D2FC
:104370004FF0805009490860BFF34F8FBFF36F8F34
:1043800010BD00003800002028000020440000205C
:104390005400002040000020EC01002004ED00E06B
:1043A00008B500F08FFD12480068E8B9114800F028
:1043B00053FD114800F050FD0E48104908600E48AA
:1043C0000F49086000200F4B0F4A102100900A206F
:1043D00001F089F8064908600846006820B10BA181
:1043E0000348006800F058FE00F096FD08BD00008C
:1043F0006C000020B0060020C406002064000020ED
:1044000068000020D806002028070020546D725153
:104410000000000010B516E000F054FD0C48C06824
:10442000C468201D00F0ECFC0A480068401E0949E1
:10443000086009480068401E0749086000F06CFDEC
:10444000204600F05FF8044800680028E4D110BD61
:1044500088060020380000203400002070B5044693
:104460000D46206C70B1216CE0680144E160D4E934
:104470000210884201D32168E1602846226CE1687D
:10448000FBF7AEFE70BD2DE9F04104460F46154620
:104490004FF00008A66B206C48B9206800282CD18A
:1044A000A06801F0D7FC80460020A06025E07DB91F
:1044B0003946226C6068FBF793FE216C6068084403
:1044C0006060D4E90101884217D32068606014E07D
:1044D0003946226CE068FBF783FE216CE068411AE4
:1044E000E1602168E068884203D2216CA068411A2B
:1044F000E160022D01D106B1761E701CA06340461A
:10450000BDE8F08110B5044694F8590030B9206B2D
:1045100000F020FD204600F01DFD1AE094F859003F
:10452000012803D1204600F015FD12E094F859004F
:10453000022801D1012000E0002050B900BF502026
:1045400080F31188BFF34F8FBFF36F8F00BF00BFA1
:10455000FEE710BD0146084A126812680AB9012236
:1045600000E000220A600A6822B9034A1268D26891
:10457000106800E0002070476400002030B54FF460
:10458000A053174800F007042CB1C01D20F007000D
:10459000134C041B1B1B0246124C22600024114DBD
:1045A0006C60D018083820F007000F4C2060002401
:1045B0000D4D2D686C600C4D2D682C601146441A11
:1045C0004C60094C24680C60084D4C682C60084D08
:1045D0004C682C604FF00044064D2C6030BD00004C
:1045E000800E00207C000020840000208C00002031
:1045F000880000209800002000BFFFF70BFF06484E
:1046000000680128F9D94FF0805004490860BFF3D1
:104610004F8FBFF36F8FF0E7EC01002004ED00E057
:104620002DE9F04106460D4617469846069C0DB901
:10463000246000E02760E66325640121204600F045
:10464000C3FF84F84C80BDE8F0812DE9F05F82461D
:104650000E4690469B460A9F0C9C4FEA8801A52275
:10466000206BFBF7CFFDA8F10100216B01EB800966
:1046700029F0070909F0070008B9012000E000202F
:1046800050B900BF502080F31188BFF34F8FBFF3A4
:104690006F8F00BF00BFFEE786B1002507E0715DA8
:1046A00004F134004155705D00B902E06D1C102D1D
:1046B000F5D300BF00214320015502E0002084F81B
:1046C0003400382F00D33727E762E76400202065E5
:1046D000201D00F0CEFB04F1180000F0CAFB24619D
:1046E000C7F13800A06164620020606584F858005A
:1046F0005A465146484600F071FB20600B9808B1BD
:104700000B980460BDE8F09F10B5002407E004EBAF
:1047100084010F4A02EB810000F09EFB641C382CE0
:10472000F5D30C4800F098FB0B4800F095FB0B48C4
:1047300000F092FB0A4800F08FFB0A4800F08CFB67
:1047400004480949086004480849086010BD000091
:10475000EC0100204C0600206006002074060020BA
:10476000880600209C0600202C000020300000203D
:1047700010B50146164800E0006803688B42FBD381
:104780000246436813448B4204D143684C68234477
:10479000436001460A464B6813440468A34211D1A2
:1047A0000C4C03682468A34208D04B680468646812
:1047B00023444B6003681B680B6005E0054B1B68D6
:1047C0000B6001E003680B60884200D0016010BDFF
:1047D0007C000020840000202DE9F04104460D46B5
:1047E00016461F464FF0000865602461B5420CD89C
:1047F000F01BA169884202D34FF0010811E0211D8E
:104800000948006800F038FB0BE0BE4204D2BD420C
:1048100002D34FF0010804E0211D0448006800F0B5
:104820002BFB4046BDE8F0816800002064000020BA
:1048300070B5054600F046FBA86B08B9012400E0FE
:10484000002400F069FB204670BD70B5054600F0FD
:1048500039FBA86BE96B884201D1012400E00024F8
:1048600000F05AFB204670BDF8B505460F461A48C1
:104870000068C068C468201D00F0C2FA94F82800DF
:1048800000F00400E8B1A06941192B463A462046E1
:10489000FFF7A2FFD8B1002003462A460146009048
:1048A000204601F033FC064656B900BF502080F385
:1048B0001188BFF34F8FBFF36F8F00BF00BFFEE7BC
:1048C00005E094F8280020F0010084F82800204634
:1048D000216A8847F8BD000064000020F0B587B069
:1048E000A0E00398002811DA04AE56B900BF5020AA
:1048F00080F31188BFF34F8FBFF36F8F00BF00BFEE
:10490000FEE7D6E90020B168904700BF0398002871
:10491000E6DB059C606908B9012000E0002010B9C1
:10492000201D00F06DFA02A800F0DEF8054603989D
:104930000A2875D2DFE800F0090507394163060847
:104940003A4200BF00BF00BF00BF94F8280040F00B
:10495000010084F828000498A269811803462A46B9
:104960002046FFF739FFF8B12046216A884794F8BE
:10497000280000F00400B8B1002000900498A1695C
:10498000421800231946204601F0C0FB074657B9DC
:1049900000BF502080F31188BFF34F8FBFF36F8F9C
:1049A00000BF00BFFEE700BF3BE000BF94F8280057
:1049B00020F0010084F8280033E000BF94F82800BC
:1049C00040F0010084F828000498A061A06908B1B3
:1049D000012000E0002050B900BF502080F3118872
:1049E000BFF34F8FBFF36F8F00BF00BFFEE7A0691B
:1049F00041192B462A462046FFF7EEFE11E094F8B7
:104A0000280000F0020018B9204600F0A3FA05E0E3
:104A100094F8280020F0010084F8280001E0FFE766
:104A200000BF00BF002203A90448006800F06AFF2D
:104A300000287FF456AF07B0F0BD00006C000020E6
:104A4000F8B505460C4600F03BFC684600F04CF813
:104A50000646009820BB44B9B54206D801F098FA42
:104A600031462846FFF700FF1CE03CB10E480068C5
:104A7000006808B9012000E000200446A91B224676
:104A80000A48006800F01EFB01F082FA50B94FF0AE
:104A9000805007490860BFF34F8FBFF36F8F01E06D
:104AA00001F076FAF8BD0000680000206C000020DC
:104AB00004ED00E00A490968096809B9012100E02C
:104AC000002121B14FF0FF31064A116006E0044990
:104AD0000968C968C868034A4168116070470000E6
:104AE0002C0000205800002070B5044601F00AF99F
:104AF000054607480068854204D200F00BF8012003
:104B0000206001E00020206001480560284670BD5B
:104B1000740000202DE9F84334E025480068C0689F
:104B2000056823480068C068C468201D00F068F963
:104B30002046216A884794F8280000F0040008B352
:104B4000A0694619AE4207D966602461211D184844
:104B5000006800F091F915E0002003462A4601465E
:104B60000090204601F0D2FA074657B900BF502006
:104B700080F31188BFF34F8FBFF36F8F00BF00BF6B
:104B8000FEE700BF0A480068006808B9012000E09D
:104B900000200028C1D00648D0F8008005480068F1
:104BA000034908600348C0F80080BDE8F8830000AE
:104BB00064000020680000200E480068401C08B90E
:104BC000012000E0002050B900BF502080F3118880
:104BD000BFF34F8FBFF36F8F00BF00BFFEE700BF73
:104BE000502080F31188BFF34F8FBFF36F8F00BF4A
:104BF00000BFFEE79C00002008B500BF6846FFF735
:104C0000A9FC044620460099FFF71AFFFFF766FE4D
:104C1000F4E770B5044600F055F994F9455010E0FA
:104C2000606A08B9012000E0002038B904F12400CE
:104C300001F062F918B100F0A5FA00E003E0681E87
:104C400045B2002DECDC00BFFF2084F8450000F0E9
:104C500063F900F037F994F9445010E0206908B97D
:104C6000012000E0002048B904F1100001F044F9EF
:104C700008B100F087FA681E45B200E001E0002D9F
:104C8000ECDC00BFFF2084F8440000F045F970BD63
:104C90002DE9F04104464FF0000800F011FB4948AF
:104CA000006808B9FFF76AFC474800682040002800
:104CB00070D1D4B1083404F00700B0B104F007009B
:104CC000C0F10800044404F0070008B9012000E026
:104CD000002050B900BF502080F31188BFF34F8FE0
:104CE000BFF36F8F00BF00BFFEE7002C52D03748E4
:104CF000006884424ED8364E3046056801E02E46A4
:104D00002D686868A04202D228680028F7D12D4893
:104D1000006885423ED0306800F10808286830609D
:104D20006868001B102819D92F1907F0070008B967
:104D3000012000E0002050B900BF502080F311880E
:104D4000BFF34F8FBFF36F8F00BF00BFFEE76868F0
:104D5000001B78606C603846FFF70AFD1B496868E5
:104D60000968081A1949086008460068194909685D
:104D7000884203D2154800681649086012496868DD
:104D80000968084368600020286013480068401CD8
:104D90001149086001F0FCF808F0070008B901208B
:104DA00000E0002050B900BF502080F31188BFF30D
:104DB0004F8FBFF36F8F00BF00BFFEE74046BDE8D7
:104DC000F08100008400002098000020880000206E
:104DD0007C0000208C00002090000020001F4FF07D
:104DE00080730360001F21F001030360001F034B69
:104DF000036014380260203870470000B94B000887
:104E000001460A69D1E901309860D1E9010358608F
:104E10005068884201D1886850600020086110689D
:104E2000401E106010687047034B0360034B0B601B
:104E30008023136070470000C8070020240800206A
:104E4000034B0360034B0B604FF480731360704798
:104E5000240A0020800A002000F1080141604FF080
:104E6000FF31816000F10801C16001610021016032
:104E7000704700210161704710B502460B685C1C49
:104E80000CB9106907E002F1080000E040684468CE
:104E900024689C42FAD944684C604C68A1608860E0
:104EA00041600A611468641C146010BD42684A6065
:104EB00093688B60936859609160086103685B1C1C
:104EC0000360704700BF502080F31188BFF34F8FFD
:104ED000BFF36F8F00BF0E480068401C0C4908608C
:104EE00008460068012812D10A480068C0B208B913
:104EF000012000E0002050B900BF502080F311884D
:104F0000BFF34F8FBFF36F8F00BF00BFFEE7704747
:104F10009C00002004ED00E00D48006850B900BF7F
:104F2000502080F31188BFF34F8FBFF36F8F00BF06
:104F300000BFFEE706480068401E054908600846B5
:104F4000006820B9002080F3118800BF00BF7047BF
:104F50009C00002070B506463546002E44D0083D22
:104F60002C46224960680968084008B1012000E029
:104F7000002050B900BF502080F31188BFF34F8F3D
:104F8000BFF36F8F00BF00BFFEE7206808B90120A4
:104F900000E0002050B900BF502080F31188BFF31B
:104FA0004F8FBFF36F8F00BF00BFFEE70F496068F0
:104FB00009680840C0B12068B0B90C496068096848
:104FC0008843606000F07CF909496068096808441A
:104FD000074908602046FFF7CBFB06480068401CE5
:104FE0000449086000F0D4FF70BD00009800002064
:104FF000880000209400002000204FF0E02108618C
:105000008861064800684FF47A71B0FBF1F0401EE9
:105010004FF0E0214861072008617047240000201C
:1050200070B5FBF7B7F80446102C16D304F1E02056
:1050300090F8F05315480078854201DB012000E02C
:10504000002050B900BF502080F31188BFF34F8F6C
:10505000BFF36F8F00BF00BFFEE70D48006800F48C
:10506000E0600C490968884201D8012000E0002076
:1050700050B900BF502080F31188BFF34F8FBFF3AA
:105080006F8F00BF00BFFEE770BD0000A0000020D2
:105090000CED00E0A4000020024600200BE0084BCD
:1050A00053F8303033B9064B43F8301003EBC003EC
:1050B0005A6002E0401C0828F1D300BF704700008E
:1050C000AC0100202DE9F04105460E4617462C465E
:1050D000FFF7F8FE94F94400401C10B9002084F852
:1050E000440094F94500401C10B9002084F84500A4
:1050F000FFF712FFA06B28B93A46314604F12400AD
:1051000000F062F82046FFF784FDBDE8F081000062
:1051100070B504460025D4B11248006808B90120D2
:1051200000E0002050B900BF502080F31188BFF389
:105130004F8FBFF36F8F00BF00BFFEE700F0C0F8D6
:1051400000212046FFF792F800F022FF05463DB906
:105150004FF0805004490860BFF34F8FBFF36F8F4B
:1051600070BD00006000002004ED00E00349096804
:105170000160034909684160704700005000002049
:105180003C00002001200149086070474C000020CD
:1051900070B504460D4654B900BF502080F3118805
:1051A000BFF34F8FBFF36F8F00BF00BFFEE705480F
:1051B000016818312046FFF75FFE01212846FFF7FE
:1051C00055F870BD2800002070B505460E461446FF
:1051D00055B900BF502080F31188BFF34F8FBFF344
:1051E0006F8F00BF00BFFEE70648016818312846F0
:1051F000FFF75CFE0CB14FF0FF3621463046FFF75B
:1052000035F870BD2800002010B586B0002005904C
:10521000049003AA04A905A8FFF706FE0022DDE911
:1052200004101346CDE9002102901EA11F48039AE5
:1052300000F0FAFC1E4908600846006808B1012425
:1052400000E00024012C02D100F024FF0446012CD0
:1052500015D100BF502080F31188BFF34F8FBFF3EB
:105260006F8F00BF4FF0FF301249086001201249D4
:10527000086000201149086000F072F810E0601C1E
:1052800008B1012000E0002050B900BF502080F399
:105290001188BFF34F8FBFF36F8F00BF00BFFEE7D2
:1052A00006B010BD49444C4500000000F945000817
:1052B0005C00002058000020440000203C0000203A
:1052C00002480068401C01490860704760000020E7
:1052D0001E48006818B101201D49086034E0002014
:1052E0001B4908601B4801680CE051B900BF502001
:1052F00080F31188BFF34F8FBFF36F8F00BF00BFE4
:10530000FEE7491E01EB8100134A52F8200008B95C
:10531000012000E000200028E7D101EB81020E4BC4
:1053200003EB820042685268426000F10802436861
:10533000934202D14268526842604268D268074B89
:105340001A600448016000BF704700006000002040
:105350004C00002040000020EC010020280000202C
:105360001CB53849084600780190FF200A461070A5
:105370000846007800909DF8000000F0F0009DF8CD
:105380000020904201D1012000E0002050B900BF70
:10539000502080F31188BFF34F8FBFF36F8F00BF92
:1053A00000BFFEE79DF8000000F05000264A107094
:1053B0000720264A106009E024480068401E234A5E
:1053C00010609DF800004006000E00909DF800005F
:1053D00000F080008028EFD01C480068C0F1070072
:1053E000042801D1012000E0002050B900BF502066
:1053F00080F31188BFF34F8FBFF36F8F00BF00BFE3
:10540000FEE7124800680002104A1060104600884B
:1054100000F4E06010600B4A019810700C480068BE
:1054200040F470000A4908600846006840F0704087
:105430000860FFF7E1FD002006490860FAF774FEF6
:1054400000201CBD00E400E0A0000020A40000201B
:1054500020ED00E09C00002010B500BF502080F33C
:105460001188BFF34F8FBFF36F8F00BF00F050FC68
:1054700018B14FF080500449086000BF002080F34D
:10548000118800BF10BD000004ED00E02DE9F843D5
:1054900005460E4617460DB1012000E0002050B928
:1054A00000BF502080F31188BFF34F8FBFF36F8F81
:1054B00000BF00BFFEE705FB06F808F15000FFF74C
:1054C000E7FB044664B1A14609F15009002084F8C5
:1054D00046003B464A46314628460094FFF7A0F86E
:1054E0002046BDE8F8832DE9F84380460E4617466E
:1054F0001D46DDF82090B8F1000F01D0012000E03A
:10550000002050B900BF502080F31188BFF34F8FA7
:10551000BFF36F8F00BF00BFFEE70DB1012000E0B9
:10552000002050B900BF502080F31188BFF34F8F87
:10553000BFF36F8F00BF00BFFEE707B10EB10120C0
:1055400000E0002050B900BF502080F31188BFF365
:105550004F8FBFF36F8F00BF00BFFEE707B90EB9D3
:10556000012000E0002050B900BF502080F31188D6
:10557000BFF34F8FBFF36F8F00BF00BFFEE7502018
:1055800000900098502801D1012000E0002050B97F
:1055900000BF502080F31188BFF34F8FBFF36F8F90
:1055A00000BF00BFFEE700BF2C464CB1012084F8CD
:1055B00046004B463A46314640460094FFF730F8E5
:1055C0002046BDE8F883000070B505460E462C461F
:1055D00054B900BF502080F31188BFF34F8FBFF341
:1055E0006F8F00BF00BFFEE7FFF76CFCD4E90F121E
:1055F000206801FB0200A0600020A06320686060BA
:10560000E06B401E226C216800FB0211E160FF206C
:1056100084F8440084F845009EB9206908B9012047
:1056200000E00020A8B904F1100000F065FC80B192
:105630004FF0805009490860BFF34F8FBFF36F8F61
:1056400007E004F11000FFF707FC04F12400FFF766
:1056500003FCFFF761FC012070BD000004ED00E0D9
:105660002DE9FF4383B0064688461D464FF00009EA
:10567000344654B900BF502080F31188BFF34F8FD8
:10568000BFF36F8F00BF00BFFEE7B8F1000F01D17D
:10569000206C08B9012000E0002050B900BF502064
:1056A00080F31188BFF34F8FBFF36F8F00BF00BF30
:1056B000FEE7022D02D1E06B012801D1012000E0BC
:1056C000002050B900BF502080F31188BFF34F8FE6
:1056D000BFF36F8F00BF00BFFEE700F003FB08B908
:1056E000059808B9012000E0002050B900BF502003
:1056F00080F31188BFF34F8FBFF36F8F00BF00BFE0
:10570000FEE700BFFFF7DEFBA06BE16B884201D331
:10571000022D28D12A4641462046FEF7B4FE074610
:10572000606A08B9012000E0002068B904F1240093
:1057300000F0E2FB88B14FF0805032490860BFF3BF
:105740004F8FBFF36F8F08E03FB14FF080502D496E
:105750000860BFF34F8FBFF36F8FFFF7DDFB0120B2
:1057600007B0BDE8F083059818B9FFF7D5FB002016
:10577000F6E7B9F1000F04D101A8FFF7F7FC4FF0ED
:105780000109FFF7C9FBFFF79BFDFFF79BFB94F9AE
:105790004400401C10B9002084F8440094F94500EE
:1057A000401C10B9002084F84500FFF7B5FB05A99F
:1057B00001A800F0C1F9F0B92046FFF746F8A0B102
:1057C00004F110000599FFF7E3FC2046FFF721FAEA
:1057D00000F0DEFB002895D14FF0805009490860A9
:1057E000BFF34F8FBFF36F8F8CE72046FFF711FA9F
:1057F00000F0CEFB86E72046FFF70BFA00F0C8FB6F
:105800000020ADE704ED00E02DE9F84F07468A4699
:1058100090461E463C4654B900BF502080F3118884
:10582000BFF34F8FBFF36F8F00BF00BFFEE7BAF12A
:10583000000F01D1206C08B9012000E0002050B910
:1058400000BF502080F31188BFF34F8FBFF36F8FDD
:1058500000BF00BFFEE7022E02D1E06B012801D19C
:10586000012000E0002050B900BF502080F31188D3
:10587000BFF34F8FBFF36F8F00BF00BFFEE7FFF78F
:10588000CFFB00BF5021EFF3118081F31188BFF3EC
:105890004F8FBFF36F8F00BF0546A06BE16B88424F
:1058A00001D3022E25D194F945B0A06B0090324669
:1058B00051462046FEF7E7FD0BF1010088B9606A0A
:1058C00008B9012000E0002050B904F1240000F0E4
:1058D00013FB28B1B8F1000F02D00120C8F8000076
:1058E00004E00BF1010040B284F845004FF00109DB
:1058F00001E04FF0000900BF85F3118800BF484662
:10590000BDE8F88F2DE9F74183B005460E464FF00C
:1059100000082C4654B900BF502080F31188BFF313
:105920004F8FBFF36F8F00BF00BFFEE70EB9206C33
:1059300008B9012000E0002050B900BF502080F3DA
:105940001188BFF34F8FBFF36F8F00BF00BFFEE71B
:1059500000F0C8F908B9059808B9012000E0002056
:1059600050B900BF502080F31188BFF34F8FBFF3B1
:105970006F8F00BF00BFFEE700BFFFF7A3FAA76B62
:10598000F7B131462046FEF769FD781EA063206915
:1059900008B9012000E0002060B904F1100000F017
:1059A000ABFA38B14FF080502F490860BFF34F8FEA
:1059B000BFF36F8FFFF7B0FA012006B0BDE8F081AA
:1059C000059818B9FFF7A8FA0020F6E7B8F1000F1C
:1059D00004D101A8FFF7CAFB4FF00108FFF79CFABA
:1059E000FFF76EFCFFF76EFA94F94400401C10B903
:1059F000002084F8440094F94500401C10B90020B0
:105A000084F84500FFF788FA05A901A800F094F88A
:105A1000F0B92046FEF70CFFA0B104F1240005996F
:105A2000FFF7B6FB2046FFF7F4F800F0B1FA0028C4
:105A3000A3D14FF080500C490860BFF34F8FBFF3E4
:105A40006F8F9AE72046FFF7E4F800F0A1FA94E799
:105A50002046FFF7DEF800F09BFA2046FEF7E8FE4E
:105A600000288AD00020A8E704ED00E02DE9F05FCF
:105A7000064689461746344654B900BF502080F385
:105A80001188BFF34F8FBFF36F8F00BF00BFFEE7DA
:105A9000B9F1000F01D1206C08B9012000E000200D
:105AA00050B900BF502080F31188BFF34F8FBFF370
:105AB0006F8F00BF00BFFEE7FFF7B2FA00BF5021B3
:105AC000EFF3118081F31188BFF34F8FBFF36F8F16
:105AD00000BF0546D4F838A0BAF1000F22D094F9DF
